:102000000080002085C9000081C90000FD55000046
:1020100000000000000000000000000000000000C0
:1020200000000000000000000000000081C9000066
:10203000000000000000000081C9000081C900000C
:1020400081C9000081C9000081C9000081C9000068
:102050002506010081C9000079EC00008DF1000027
:1020600081C90000C5D40000D5D40000E5D400002B
:10207000F5D4000005D5000015D5000081C9000089
:1020800081C9000081C90000B5E10000C1E1000084
:10209000CDE1000081C9000081C9000081C90000B4
:1020A00081C9000081C9000081C9000081C9000008
:1020B0007CB0EE877CB0EE87FF00FF00FF00FF00E2
:1020C000FF00FF00FF00FF00FF00FF00FF00FF0018
:1020D000FF00FF00FF00FF00FF00FF00FF00FF0008
:1020E000FF00FF00FF00FF0010B5064C2378002B17
:1020F00007D1054B002B02D0044800E000BF0123AC
:10210000237010BD400300200000000048C90100FA
:10211000084B10B5002B03D00749084800E000BF6A
:1021200007480368002B00D110BD064B002BFBD0E5
:102130009847F9E7000000004403002048C9010067
:1021400048C901000000000010B501F055F913F076
:1021500001F900F091FD10BD10B501F04DF913F03B
:102160002DFC00F089FD10BD10B501F045F913F00C
:1021700073F900F081FD10BD10B501F03DF913F0C9
:10218000CBFF00F079FD10BD10B501F035F913F06B
:10219000ABFB00F071FD10BD10B501F02DF913F08F
:1021A0002BFB00F069FD10BD10B501F025F912F010
:1021B000F3FA00F061FD10BD10B501F01DF913F048
:1021C0005BFA00F059FD10BD10B50C000299914268
:1021D00023DB002B0BD1042A19D0022A01D1C3071B
:1021E00011D50100200018F0E1F9002010BD2100F8
:1021F0008018A418002AF8DD013803780B7001312B
:10220000A142F9D1F1E7038800202380EEE783079C
:10221000E7D1036800202360E8E70021200018F0E0
:10222000E0F901204042E1E7083070470300002058
:10223000002B06D0002904DB5A68914201DA5B18B2
:10224000187A7047002806D0002904DB43689942B9
:1022500001DA40180272704770B5002B21DB0029AB
:102260001FDB4668B1421CDC5568761AED1AB54290
:102270000CDC002D15DB82420AD0083208304018F1
:10228000D1182A0018F092F9002070BD3500F0E74F
:102290000832D31850182A00190018F090F90020BD
:1022A000F3E701204042F0E74068704710B5002A8C
:1022B0000DDB4468A2420ADC002B09DBA41A9C4215
:1022C00000DD1C0008308018220018F08AF910BDCB
:1022D0002300F3E7436810B51C008B4200DD0C00BF
:1022E000002A08DB191B914200DD1100083000199B
:1022F00000F0B6FA10BD1A00F4E7C04670B50E0043
:10230000002B20DB002A1DDB44689918A14219DC50
:102310008A4217DC002B15D0710013D059428E422F
:1023200014DDB34212DD08308518002E16DB9C1B2D
:10233000A9192200280018F042F9281932000021BA
:1023400018F04FF970BD43689B1ADBE7002CF9DBEE
:1023500022000021083018F044F9F3E774429A197A
:102360002900281918F02BF922000021280018F064
:1023700038F9E7E7F8B5040043680020590000F099
:102380004BFA6668002E0FDD0F272200A619074CB6
:10239000811D137A01321D113B40655DE35C0D70B8
:1023A0004B7002319642F4D1F8BDC046F0AB01004B
:1023B00070B50400160008001D1E2BDB002E28DB64
:1023C0006268AB19934224DC9E4222DC002D20D0AF
:1023D00043001ED0002822DB29000FF0D5FB002986
:1023E00020DB220008329219511855198A4210D068
:1023F0000B0004E003008A420FD0934209D0147806
:102400001E78581C167001321C708542F2D10B00E8
:10241000F3E770BD63689D1AD0E70100EDE72B027A
:10242000C018D9E74919DCE7012300B55B4283B046
:1024300000930023FFF710FF03B000BD10B50100AB
:10244000002000F00DFA10BD30B5040083B00D007F
:10245000102A0DD8544992008A589746180001F066
:10246000B3F80090032D03DDA30700D096E02060B1
:1024700003B030BD180001F045F8002DF8DD2070E4
:10248000F6E7180001F03EF86B461880012DEFDDED
:102490001B7863706B465B782370E9E7180001F0E6
:1024A00031F80090032DE3DD00216A46231D505CC6
:1024B000013B187001319C42F9D1D9E7180001F0B5
:1024C00021F8C0B2002DD3DD2070D1E7180000F054
:1024D00093FF00900191072DCADD08226946200074
:1024E00018F064F8C4E7180000F0B2FF0090032D64
:1024F000BADCBDE7180000F0ABFF0090032DB7DD9C
:1025000000216A46231D505C013B187001319C423A
:10251000F9D1ADE7180000F06FFF00900191072D91
:10252000A6DD23006A4608331178013B1970013299
:102530009C42F9D19CE7180001F046F80090032D69
:1025400096DD00216A46231D505C013B1870013165
:102550009C42F9D18CE7180000F0D4FF6B4618803C
:10256000012D00DC84E7E30716D50222694620002E
:1025700018F01CF87CE7180000F0C4FF6B4680B22E
:102580001880012DEFDC73E7180000F0BBFF00900E
:10259000032D00DD68E76BE7208069E704226946C8
:1025A000200018F003F863E768AB010010B5002ABB
:1025B00007DB44680830A41A80180A002100FFF7DE
:1025C00043FF10BD10B584B0102A00D977E03D4B11
:1025D00092009B589F460123009102A90822FFF711
:1025E000F3FD0298039900F047FB04B010BD0023EF
:1025F00002AC009101222100FFF7E6FD00202056E9
:1026000000F072FBF1E7002302AC009101222100EF
:10261000FFF7DAFD207800F067FBE6E7002302AC65
:10262000009102222100FFF7CFFD0023E05E00F0C1
:102630005BFBDAE7002302AC009102222100FFF7E6
:10264000C3FD208800F050FBCFE700230091042257
:1026500002A9FFF7B9FD029800F046FBC5E702ACFE
:1026600000910123C6E702AC00910123CEE702AC42
:1026700000910123D5E702AC00910123DDE7009131
:102680000123E4E700230091042202A9FFF79CFD47
:10269000029800F059FBA8E700910123F4E700231A
:1026A0000091042202A9FFF78FFD029800F0FEFAC4
:1026B0009BE70091002390E700910123F1E70020C0
:1026C00093E7C046ACAB010010B5002A08DB4368B5
:1026D00008309B1A80180A001900FFF773FF10BD1D
:1026E000002000F001FBFAE710B502F01FFC10BD5E
:1026F00010B502F04BFC10BD10B505F007FD10BD84
:1027000010B5C11702F078FB10BDC04610B502F03D
:1027100087FB10BD10B502F093FB10BD10B502F0A1
:1027200003FC10BD10B5002803D08188063003F0EB
:1027300097FA10BD7047C04670B505000C200C001C
:1027400017F001FF0323858003802D0C1D330481C6
:10275000240CC5804380448170BDC046D0B50400C0
:1027600011F0DCFE6400060060100F0011F094FE12
:1027700002000B00300039000FF01CFA002802D0D4
:1027800001202043D0BD30003900FFF7D5FFF9E725
:10279000054B1B68002B05D05A688242F9D19A6814
:1027A0008A42F6D1180070475C030020F0B5C64697
:1027B000184B00B51C6805000E0017009846002C49
:1027C00003D112E02468002C0FD063689D42F9D138
:1027D000A3689E42F6D1380001F08EFDE06801F05A
:1027E00073FEE76004BC9046F0BD380001F084FD44
:1027F000102017F0A8FE10220021040017F0F1FEAF
:1028000043461B68656023604346A660E7601C6022
:10281000E8E7C0465C03002070B506000C1E18DB1C
:10282000002C01D10D4870BDE01D17F08CFE032374
:102830000380023B050043808480002E04D0A81D45
:102840002200310017F0B2FE00232C19A3712800DA
:10285000E9E717F01CFF0400E2E7C046CCAC01003A
:1028600070B506000D1E12DD0800083017F06BFE73
:1028700003230380013B040043804560002E08D001
:1028800008302A00310017F091FE200070BD044886
:10289000FCE708302A00002117F0A3FE2000F5E72E
:1028A000C4AC0100014B18607047C046B80000205E
:1028B0000F4BF0B59C46050001241F682A0000203C
:1028C000BE09FB0F73407B403E0979087340BF0887
:1028D0007B404B40DB070B431F00230040003B4085
:1028E00018435208ECD18542E8D363461F60F0BD1F
:1028F000B800002010B500210148FFF78DFF10BD82
:1029000068B00100002200B583B001AB1A8001213C
:1029100018701800FFF780FF03B000BD00B583B04A
:10292000002804D0002902DB8388994205DB0021BE
:102930000748FFF771FF03B000BD002240188379FC
:10294000012101A802800370FFF766FFF3E7C0468C
:1029500068B00100F8B505000C00002825D081887A
:10296000002C27D000291BD0A388C918002B11D018
:102970000020FFF751FF871DAA88A91D0600380017
:1029800017F014FEA888A2883818A11D17F00EFEB3
:102990003000F8BD280001F0AFFC0600F8E70A4C53
:1029A000200001F0A9FC0600F2E7002907D004216D
:1029B000054DD9E70029F2D00431034CD8E7024C89
:1029C00008212500D4E7C046ACAD010080887047DF
:1029D000F0B54746CE4680B5037883B006008846FA
:1029E000202B03D101363378202BFBD02B3B5A42CE
:1029F0005341F61833782D2B00D176E000214C4A54
:102A000000910192302B00D178E0002B00D18CE0B6
:102A10000027002400251EE00022464B200029004C
:102A200010F050FF04000D00484611F035FD220063
:102A30002B0010F003F804000D00002F07D00098C1
:102A4000019900223B4B10F009FB009001910136E7
:102A50003378002B0FD030225242914699444A4697
:102A6000092AD9D9002F17D12E2B15D10136337849
:102A70000127002BEFD12200009801992B0010F0C4
:102A800021FF04000D0043461E602000290003B012
:102A90000CBC90469946F0BD20229343452B01D1B2
:102AA00005E001363378202BFBD0002B3AD1009A79
:102AB000019B2000290010F005FF337804000D0071
:102AC000002BE0D00A224146701C17F0F7FC194990
:102AD000020000200FF0F6F802000B002000290091
:102AE00010F0F0FE04000D00CFE700217378124AC9
:102AF000013600910192302B00D086E720217278B8
:102B00000A43782A00D083E710224146300017F0AC
:102B1000D5FC11F0C1FC009A019B10F0D3FE04001B
:102B20000D00B2E70024054DAFE700240025A2E721
:102B30000000F03F000024400000F0BF0000F87FDC
:102B4000F0B5050083B0841D200001A9FFF740FF08
:102B5000AB880600E418019B0F00A34207D00026B3
:102B6000224F30003900FFF7E7FD03B0F0BD00222F
:102B700000230FF01FF8002825D101227C006408F3
:102B800052421B4B3000210011F032FC0028E6D1EC
:102B90000122174B5242300021000FF025F8002887
:102BA000DDD1802300225B033000210011F020FCE6
:102BB0000028D4D1802300225B03300021000EF0D6
:102BC000FFFF0028CBD13900300011F031FC440068
:102BD000601011F061FC02000B00300039000EF0B3
:102BE000E9FF0028BDD001202043BEE70000F87FA8
:102BF000FFFFEF7F10B5002A12DD838800290ADB72
:102C00005B1A934205DC063040181900FFF704FEFA
:102C100010BD1300F7E7C918CC43E4172140EFE7D4
:102C200000210248FFF7F8FDF2E7C04668B0010056
:102C300010B5002811D000290FD0002A0DDB8B8899
:102C400084889B18A34208DC841D0631A01817F065
:102C500025FD002801D0001B10BD01204042FBE7EC
:102C600010B5FFF7E5FF0130431E984110BDC04687
:102C700043425841C0B27047D0B50F00060011F072
:102C8000D7FB4400601011F007FC02000B0030007D
:102C900039000EF08FFF002802D001202043D0BD64
:102CA00030003900FFF748FDF9E7C046D0B5041CF5
:102CB00011F06CFC0600201C0F000FF009FE440010
:102CC000601011F0E9FB02000B00300039000EF03B
:102CD00071FF002802D001202043D0BD3000390010
:102CE000FFF72AFDF9E7C046F8B544006510A84291
:102CF0000ED011F0D1FB060028000F0011F0CCFB24
:102D000002000B00300039000EF054FF002802D002
:102D100001202043F8BD30003900FFF70DFDF9E731
:102D200010B5002804D0002902DB8388994204DB17
:102D300000200449FFF700FD10BD40188079FFF71F
:102D4000D3FFF9E70000F87F054B10B5984202D990
:102D5000FFF704FD10BD012340001843FAE7C04609
:102D6000FFFFFF3F4223002800D1383B1800704787
:102D7000F8B557464E464546DE460023E0B51700F7
:102D8000002206000D000EF01BFF002800D072E0AC
:102D900000220023300029000EF00CFF002809D08B
:102DA00030233B7000237B703CBC90469946A24682
:102DB000AB46F8BD3000290012F076FF11F038FB69
:102DC000454A8346454B300029000EF017FF002886
:102DD00059D15A46002042490EF074FF0B00020000
:102DE0002900300010F03AF9012306000D00984642
:102DF000002399462E339A462900300011F018FB23
:102E0000030030333B70040011F046FB02000B005E
:102E10003000290010F0D6FF314B002210F052FD97
:102E200001235B429C46E044434606000D00002B14
:102E30001DD001374B461C4316D001239C46E1446C
:102E40004B46102BD8DD4346002BD5DC013F3B78A9
:102E5000302BFBD02E3B5A425341FF1A5B46012BCD
:102E60002FD100237B709FE700239946C4E7534688
:102E70007B700237DEE72D233B7080231B069C46C8
:102E80000137654484E7174A174B300029000EF0DC
:102E900097FE00289DD05B46002B19DD5A46002086
:102EA0000F490EF00FFF0B0002002900300010F058
:102EB000D5F801235B449846012306000D009B468C
:102EC00096E76523B91C7B70584605F011FA6BE74D
:102ED000012398469B468BE78DEDB5A0F7C6B03E23
:102EE0000000244050EFE2D6E41A4B44012070B5B4
:102EF0004042FFF7DDFC04000D48FFF7D9FC060057
:102F0000200011F00BFB00220A4B10F0DBFC040048
:102F100030000D0011F002FB074A084B10F09EF83C
:102F200002000B00200029000FF088FD70BDC04694
:102F3000FFFFFF000000F03D0000E0DFFFFF6F43F8
:102F4000D0B5FFF7D3FF0F00060011F071FA44006F
:102F5000601011F0A1FA02000B00300039000EF0F1
:102F600029FE002802D001202043D0BD30003900C6
:102F7000FFF7E2FBF9E7C0464843704710B50EF093
:102F80001DFD10BD10B50C2017F0DDFA040001F096
:102F900071FD200010BDC0460089704710B5043097
:102FA00001F068FC10BDC04610B501F0E9FC10BD91
:102FB00010B501F0F1FC10BD10B501F001FD10BD20
:102FC00010B501F01BFD10BD10B501F007FD10BDDF
:102FD00010B501F009FD10BD10B501F01DFD10BDCB
:102FE00010B501F035FD10BD024B1B68588C400038
:102FF0007047C046640300200D4B30B51B685D6A06
:103000002B68984212D0002B0ED02B0000240833DE
:1030100002E00833002A07D01A6802348242F8D14D
:103020000134A400285930BD0800FCE70424F9E766
:10303000640300204068704710B54468200001F028
:103040005BF9200010BDC0464160704770B50D00AF
:103050000400406801F038FA656070BD10B50820C2
:1030600017F071FA040001F011FD200010BDC046F8
:1030700010B5082017F067FA040001F011FD2000D8
:1030800010BDC04670B5040001F000FA2388114A53
:103090000500934208D0012B16D9DA0706D5023B6A
:1030A0009BB22380012B0BD0280070BD002107208C
:1030B00001F028FD2388023B9BB22380012BF3D132
:1030C000200001F0F5F9EFE70021072001F01AFDDB
:1030D0002388E2E7FFFF000070B5040001F0DAF991
:1030E0002388114A0500934208D0012B16D9DA072C
:1030F00006D5023B9BB22380012B0BD0280070BD6C
:103100000021072001F0FEFC2388023B9BB22380B4
:10311000012BF3D1200001F0CBF9EFE700210720CC
:1031200001F0F0FC2388E2E7FFFF000010B5040087
:1031300001F0BAF92388104A934208D0012B15D91F
:10314000DA0705D5023B9BB22380012B0AD010BDC4
:103150000021072001F0D6FC2388023B9BB223808C
:10316000012BF4D1200001F0A3F9F0E700210720A2
:1031700001F0C8FC2388E3E7FFFF000010B504005E
:1031800001F0D6F92388104A934208D0012B15D9B3
:10319000DA0705D5023B9BB22380012B0AD010BD74
:1031A0000021072001F0AEFC2388023B9BB2238064
:1031B000012BF4D1200001F07BF9F0E7002107207A
:1031C00001F0A0FC2388E3E7FFFF000070B50500D5
:1031D0000C00160000290EDB037999420BDAA400DB
:1031E0002C19E368002B03D00B21082001F08AFC86
:1031F0002800E66070BD0A21082001F083FCEEE79C
:1032000010B504F08FFF10BD002803D08388002B79
:1032100000D070470020FCE710B5002803D001F073
:1032200053F9012010BD0020FCE7C04610B5142062
:1032300017F089F9040001F03DFC200010BDC046E4
:1032400070B5040001F046FC00282ADB01002000D4
:103250000C3001F055FA01F04FF82388214A05009F
:10326000934208D0012B16D9DA0706D5023B9BB250
:103270002380012B0BD0280070BD0021072001F016
:1032800041FC2388023B9BB22380012BF3D1200019
:1032900001F00EF9EFE70021072001F033FC23884D
:1032A000E2E723880F4A934208D0012B13D9DA07AB
:1032B0000BD5023B9BB22380012B01D00025DAE71E
:1032C000200001F0F5F80025D5E70021072001F0E6
:1032D00019FC2388EDE70021072001F013FC238867
:1032E000E5E7C046FFFF000010B5FFF7A9FF10BDDE
:1032F00070B504000D00160001F0ECFB002821DB86
:103300000100200032000C3001F07CFA2388154ABD
:10331000934208D0012B1FD9DA0705D5023B9BB297
:103320002380012B0AD070BD0021072001F0EAFBA9
:103330002388023B9BB22380012BF4D1200001F0B3
:10334000B7F8F0E7201D290001F0A2FA20003100B3
:103350000C3001F09DFAD9E70021072001F0D2FBE3
:103360002388D9E7FFFF000010B5FFF7C1FF10BDAC
:10337000014B18687047C046600300207047C04684
:1033800010B50400830711D1002820D04388032002
:10339000012B0AD00220202B07D0212B19D01ADDB7
:1033A0009B00134A934214D0042010BD0020002C2F
:1033B000FBD00220E307F8D4422C17D00A2C15D0FA
:1033C000062CF1D02F2004F0ADFE0420EDE7002004
:1033D000EBE70520E9E7002B03D0064A9B009B584A
:1033E000DFE7642004F09EFE6388F6E70120DCE757
:1033F00094AE0100D4AC010070B50400830712D173
:10340000002C0FD02000FFF7BBFF0500022810D0D2
:10341000032817D12000FFF793FB0400284202D1B4
:10342000002CEFD10024200000F012F811F034F845
:1034300070BDE088A38800046189184323890904CA
:103440001943F5E700200149F2E7C0460000F87F84
:1034500070B5C30747D483073FD4002841D0FFF796
:10346000CBFF01224C0064080E005242234B210086
:10347000050010F0BDFF002833D101221F4B52423E
:10348000280021000EF0B0FB00282AD18023002262
:103490005B032800210010F0ABFF002821D180231E
:1034A00000225B03280021000EF08AFB002818D1BF
:1034B0002800310012F052F80022114B12F000FBEC
:1034C0000022002304000D000EF07AFB00280CD12E
:1034D000200029000EF054FC02E08011431E9841A8
:1034E00070BD0020FCE74010FAE720002900002210
:1034F000034B0FF0A3FA04000D00E9E7FFFFEF7F95
:103500000000F04110B5FFF7A3FF10BD70B50D002E
:10351000FFF79EFF04002800FFF79AFF8440200079
:10352000FFF7E2FB70BDC04670B50D00FFF790FFDE
:1035300004002800FFF78CFF04412000FFF7D4FBB4
:1035400070BDC04670B50D00FFF782FF0400280073
:10355000FFF77EFF6040FFF7C7FB70BD70B50D0041
:10356000FFF776FF04002800FFF772FF2043FFF704
:10357000BBFB70BD10B5FFF76BFFC043FFF7B4FB9B
:1035800010BDC04670B50D00FFF762FF04002800B3
:10359000FFF75EFF2040FFF7A7FB70BD70B50D0081
:1035A000FFF756FF04002800FFF752FFC440054B09
:1035B00020009C4203D801236000184370BDFFF730
:1035C000CDF8FBE7FFFFFF3F10B5FFF715FF11F048
:1035D0002FF810BDF8B50E00FFF70EFF0400300005
:1035E0000D00FFF709FF02000B00200029000FF07B
:1035F00025FA0F00060010F01BFF4400601010F0C9
:103600004BFF02000B00300039000EF0D3FA002807
:1036100002D001202043F8BD30003900FFF78CF8BC
:10362000F9E7C046F8B50E00FFF7E6FE04003000EB
:103630000D00FFF7E1FE02000B002000290010F052
:10364000C1FB0F00060010F0F3FE4400601010F004
:1036500023FF02000B00300039000EF0ABFA002807
:1036600002D001202043F8BD30003900FFF764F894
:10367000F9E7C0460B000340D0B50C00DB0703D5CB
:10368000C3130133012B24D9FFF7B6FE0600200037
:103690000F00FFF7B1FE02000B003000390010F000
:1036A00011F90F00060010F0C3FE4400601010F086
:1036B000F3FE02000B00300039000EF07BFA002808
:1036C00002D001202043D0BD30003900FFF734F88C
:1036D000F9E7CB130133012BD6D84C1040106043CF
:1036E000FFF702FBEFE7C046F8B50E00FFF784FED8
:1036F000040030000D00FFF77FFE02000B002000E9
:1037000029000FF0ABFC0F00060010F091FE440002
:10371000601010F0C1FE02000B00300039000EF006
:1037200049FA002802D001202043F8BD30003900BA
:10373000FFF702F8F9E7C046F8B501230C0018427C
:1037400001D019421FD1FFF757FE060020000F00DD
:10375000FFF752FE02000B003000390012F0B0F902
:103760000F00060010F064FE4400601010F094FE9C
:1037700002000B00300039000EF01CFA002812D0B5
:1037800001202043F8BD4B10DDD0FFF761FE05009E
:103790002000FFF75DFE010028000EF0F5F908009B
:1037A000FFF7A2FAEEE730003900FEF7C5FFE9E7C0
:1037B0000B000340D0B50C00DB0706D5012388427F
:1037C00001DAD8B2D0BD0023FBE7FFF715FE0600F3
:1037D00020000F00FFF710FE02000B003000390040
:1037E00001240EF0EDF9002801D0E0B2EAE7002450
:1037F000E0B2E7E70B000340D0B50C00DB0703D5D0
:10380000884210DD0A20D0BDFFF7F6FD060020003B
:103810000F00FFF7F1FD02000B00300039000EF041
:10382000D9F90028EED04220EDE7C0460B00034056
:10383000D0B50C00DB0703D5884210DB0A20D0BDD1
:10384000FFF7DAFD060020000F00FFF7D5FD0200AC
:103850000B00300039000EF0B3F90028EED0422002
:10386000EDE7C0460B000340D0B50C00DB0703D5E5
:10387000884210DA0A20D0BDFFF7BEFD0600200006
:103880000F00FFF7B9FD02000B00300039000EF009
:10389000B5F90028EED04220EDE7C0460B0003400A
:1038A000D0B50C00DB0703D5884210DC0A20D0BD60
:1038B000FFF7A2FD060020000F00FFF79DFD0200AC
:1038C0000B00300039000EF08FF90028EED04220B6
:1038D000EDE7C046F8B50E00FFF78EFD040030009E
:1038E0000D00FFF789FD02000B002000290012F0F7
:1038F00067FA0F00060010F09BFD4400601010F006
:10390000CBFD02000B00300039000EF053F9002807
:1039100002D001202043F8BD30003900FEF70CFF33
:10392000F9E7C046F8B50E00FFF766FD0400300069
:103930000D00FFF761FD02000B002000290011F0CF
:1039400057FF0F00060010F073FD4400601010F0E8
:10395000A3FD02000B00300039000EF02BF9002807
:1039600002D001202043F8BD30003900FEF7E4FE0C
:10397000F9E7C0460123F0B50E0083B018420DD020
:1039800019420BD040104E10864233DA801BFEF7EE
:103990008FFF3018FFF7A8F903B0F0BDFFF72CFD3B
:1039A000040030000D00FFF727FD06000F000200A5
:1039B0000B00200029000EF017F9002826D1320054
:1039C0003B00200029000EF0F5F8002818D029004F
:1039D000200010F02DFD4600701010F05DFD02007B
:1039E0000B00200029000EF0E5F8002837D0012058
:1039F0003043D1E786422ED13000FFF775F9CBE78F
:103A000032003B0026002F0014001D00FFF76EFA65
:103A10003200009001913B002000290010F0D2F903
:103A2000009A019B0FF04EFF32003B000FF006F8AA
:103A30000F00060010F0FCFC4400601010F02CFD9C
:103A400002000B00300039000EF0B4F800280BD053
:103A500001202043A0E733000600180096E720006D
:103A60002900FEF769FE97E730003900FEF764FE93
:103A700092E7C046D0B5FFF7BFFC12F08DF80F00FB
:103A8000060010F0D5FC4400601010F005FD0200A7
:103A90000B00300039000EF08DF8002802D0012014
:103AA0002043D0BD30003900FEF746FEF9E7C0469E
:103AB000D0B5FFF7A1FC12F0F7F80F00060010F0E8
:103AC000B7FC4400601010F0E7FC02000B0030006F
:103AD00039000EF06FF8002802D001202043D0BD3D
:103AE00030003900FEF728FEF9E7C046D0B5FFF7F1
:103AF00083FC11F083FC0F00060010F099FC4400D9
:103B0000601010F0C9FC02000B00300039000EF00C
:103B100051F8002802D001202043D0BD30003900E8
:103B2000FEF70AFEF9E7C046D0B5FFF765FC11F0D5
:103B30001DFC0F00060010F07BFC4400601010F02C
:103B4000ABFC02000B00300039000EF033F8002807
:103B500002D001202043D0BD30003900FEF7ECFD3B
:103B6000F9E7C046D0B5FFF747FC11F0E5F80F00C4
:103B7000060010F05DFC4400601010F08DFC0200A7
:103B80000B00300039000EF015F8002802D001209B
:103B90002043D0BD30003900FEF7CEFDF9E7C04626
:103BA000D0B5FFF729FC10F095FE0F00060010F0CD
:103BB0003FFC4400601010F06FFC02000B0030006E
:103BC00039000DF0F7FF002802D001202043D0BDBE
:103BD00030003900FEF7B0FDF9E7C046D0B5FFF779
:103BE0000BFC11F0A5FD0F00060010F021FC4400B5
:103BF000601010F051FC02000B00300039000DF095
:103C0000D9FF002802D001202043D0BD3000390068
:103C1000FEF792FDF9E7C046D0B5FFF7EDFB11F0D6
:103C2000CBFC0F00060010F003FC4400601010F005
:103C300033FC02000B00300039000DF0BBFF002800
:103C400002D001202043D0BD30003900FEF774FDC2
:103C5000F9E7C046D0B5FFF7CFFB12F0CDFA0F0061
:103C6000060010F0E5FB4400601010F015FC0200A7
:103C70000B00300039000DF09DFF002802D001201C
:103C80002043D0BD30003900FEF756FDF9E7C046AD
:103C9000D0B5FFF7B1FB11F099F80F00060010F056
:103CA000C7FB4400601010F0F7FB02000B0030006F
:103CB00039000DF07FFF002802D001202043D0BD45
:103CC00030003900FEF738FDF9E7C046D0B5FFF700
:103CD00093FB10F09BFF0F00060010F0A9FB4400BF
:103CE000601010F0D9FB02000B00300039000DF01D
:103CF00061FF002802D001202043D0BD30003900F0
:103D0000FEF71AFDF9E7C046D0B5FFF775FB11F0D5
:103D100025FC0F00060010F08BFB4400601010F033
:103D2000BBFB02000B00300039000DF043FF002800
:103D300002D001202043D0BD30003900FEF7FCFC4A
:103D4000F9E7C046D0B5FFF757FB00220E4B0EF047
:103D500075FE11F03BF80F00060010F069FB4400FF
:103D6000601010F099FB02000B00300039000DF0DC
:103D700021FF002802D001202043D0BD30003900AF
:103D8000FEF7DAFCF9E7C0460000E03FF8B50400B2
:103D900083071ED100282CD0FFF7F2FA032824D085
:103DA000012502281FD12000FFF726FB02000B008F
:103DB00006000F0010F01CFB00281AD1002300227F
:103DC000300039000DF0F6FE434243415B421D4096
:103DD00009E000280DD0062C0BD00A2C09D0013C9C
:103DE00025006C1EA5412800F8BDA3880125002BE5
:103DF000F9D10025F7E7C04670B5040042280BD082
:103E00000A2807D0FFF7C2FF0500200000F05CFB86
:103E1000280070BD0025FBE70125F9E770B590B0DB
:103E20000400FFF7ADFA032858D002281BD005285C
:103E300052D0002C4ED00A2C5DD0422C5DD0062CE6
:103E40005DD06388212B39DC002B4FD0334A9B0097
:103E50009B581869002845D0210000F043FC00F071
:103E600073F810B070BDE3072AD42000FFF7C4FA3E
:103E700002000B0004000D0010F0BAFA00284BD12C
:103E800001226E0076085242254B2000310010F0CE
:103E9000AFFA002835D10122214B524220003100D7
:103EA0000DF098FE00282CD10022002320002900CC
:103EB0000DF086FE002817D11A48D2E79B00C8E70C
:103EC0006946601004F014FA012168464942FEF781
:103ED000A3FCC6E71448C4E71448C2E7200000F07A
:103EE0000BFABEE71248BCE71248BAE7642004F0B8
:103EF00019F96388AAE71048B3E71048B1E71048FA
:103F0000AFE7200029006A46FEF732FF012168462C
:103F10004942FEF781FCA4E70A48A2E7D4AC0100BD
:103F2000FFFFEF7F80AD0100B4AC0100F4AD0100F4
:103F3000D0AD01009CAD0100C4AD0100B8AD0100E1
:103F4000ACAD010090AD010070B50400FFF718FAA8
:103F50002500032806D02000FFF760FF05002000A1
:103F600000F0B2FA280070BDF8B505000C008842D8
:103F700028D0FFF705FA07002000FFF701FA032F0A
:103F80000ED0032820D02800FFF748FF21000500AD
:103F9000FFF7EAFF0600280000F096FA3000F8BDAF
:103FA0000126A307FAD403280ED02000FFF736FF1E
:103FB000040001002800FFF7D7FF0600200000F0F2
:103FC00083FAEBE70026E9E7AB0702D50126764244
:103FD000E4E7032FD7D1A11DA81D16F046FB00284A
:103FE000F4DB0600701E8641D8E7C046F8B5050030
:103FF0000C0088422AD0FFF7C3F906002000FFF723
:10400000BFF90300032E23D0032821D000209E42B5
:1040100000D0F8BD2A00032322431340F9D1180031
:10402000022EF6D12800FFF7E7F9060020000F0066
:10403000FFF7E2F902000B003000390001240DF017
:10404000B9FD002800D10024E0B2E2E70120E0E75A
:1040500021002800FFF788FF43425841C0B2D8E74B
:1040600010B506280CD042280FD00A280FD00629F8
:1040700009D042290DD00A290DD0FFF7B7FF10BD96
:1040800000200629F5D10021F7E70320EFE7012002
:10409000EDE70321F1E70121EFE7C04610B5FFF797
:1040A000DFFF4223002800D1383B180010BDC04676
:1040B00010B5FFF7F3FF10BD10B5FFF7D1FF422396
:1040C000002800D0383B180010BDC04610B5FFF7DF
:1040D000F3FF10BD70B50C00062815D0422815D08E
:1040E0000A2819D0062C0DD0422C11D00A2C11D040
:1040F0002100FFF77BFF051E02D0200000F0E4F94D
:10410000280070BD0021F4E70020EBE70320E9E779
:104110000321EEE70121ECE70120E3E710B5FFF70B
:1041200065FF4223002800D1383B180010BDC0466F
:1041300010B5FFF7F3FF10BD10B5FFF757FF42238F
:10414000002800D0383B180010BDC04610B5FFF75E
:10415000F3FF10BD10B5FFF713F905280FD80A4B70
:1041600080001B589F46094810BD0948FCE70948D4
:10417000FAE70948F8E70948F6E70948F4E72F2085
:1041800003F0D0FF0020EFE704AC010070AD0100A8
:10419000A4AC010008AE010028AE010018AE010079
:1041A00060AD010070B50400FFF7EAF8042810D0F4
:1041B0002000FFF733FE05002000FFF7CBFFAB1D0B
:1041C000811D2200164804F0A9FA280000F07CF9AD
:1041D00070BDA30704D02100124804F09FFAF7E74E
:1041E000002CF8D02368DB07F5D562889300212ADC
:1041F00004DC002A0ED00C4B9100CB58DB680B4935
:104200008B4202D020009847E2E72188084804F05A
:1042100085FADDE7642003F085FF6288EBE7C0469E
:1042200044AC010038AC0100D4AC0100A541000051
:104230001CAC010010B504004088212805DC0028D2
:1042400005D0054B8000C05810BD8000FCE76430ED
:1042500003F068FF6088F4E7D4AC010010B500F00B
:10426000CFFD10BD10B5002801DB00F0C1FD10BD71
:104270007047C04670B505880400FFF7DBFF2A00D1
:1042800003882100014804F049FA70BD74AE0100B2
:10429000010000B5074B82681B6883B0D31A0288FF
:1042A0004079019008790090034804F037FA03B090
:1042B00000BDC0466403002028AF010010B5010016
:1042C00002884368014804F029FA10BD10AF0100CC
:1042D00010B5010002884368014804F01FFA10BDC0
:1042E00038AE010010B5010003890288014804F0CE
:1042F00015FA10BDCCAE010010B5040083070FD134
:1043000000280DD00368DB070AD52000FFF792FFD5
:104310002388094A934203D0012B03D90233238017
:10432000200010BD00220721044804F0F7F92A20DC
:1043300003F0F8FE2388F1E7FFFF0000A8AE0100BC
:10434000F8B506000D00140000284EDB884257DD4A
:104350002D4F01223800092104F0E0F92A2003F052
:10436000E1FE38000222092104F0D8F92A2003F0E6
:10437000D9FE264F64003868254B025B9A4208D06C
:1043800003220521204804F0C9F92A2003F0CAFEBF
:10439000386800194388212B09D0042205211A48C6
:1043A00004F0BCF92A2003F0BDFE386800190400AF
:1043B000002D18D0E81C800016F0C5F803230380F8
:1043C000144B07009B08438005714671201D012492
:1043D000FF222043B86038002A4092000C300021B0
:1043E00016F0FFF83C002000F8BD074F012238000E
:1043F000092104F093F92A2003F094FEAE42B0DCC8
:10440000FF2DB6DD004FACE7A8AE0100640300202D
:10441000FFFF000094AE0100184B70B51C6840000F
:104420002418174BA2689A4207D016480322092184
:1044300004F074F92A2003F075FE134BE2689A42E7
:1044400017D0042209210F4804F068F92A2003F04C
:1044500069FE208816F077F80500032322882B8058
:10446000A3086B80281D043A002116F0BAF8280032
:1044700070BD208816F067F80500EEE764030020A1
:1044800045450000A8AE01007542000089004018B3
:104490004068704710B58900401844682000FFF755
:1044A0002BFF200010BDC0468900401842607047B5
:1044B00010B50400FFF7BEFE836820009847200077
:1044C00016F03DF810BDC04610B50400830711D1A9
:1044D00000280FD00368DB070CD52388124A9342CB
:1044E00008D0012B15D9DA0709D5023B9BB22380EE
:1044F000012B00D010BD2000FFF7DAFFFAE7002201
:1045000007210A4804F00AF92A2003F00BFE238849
:10451000EBE700220721054804F000F92A2003F008
:1045200001FE2388DFE7C046FFFF0000A8AE0100C0
:1045300070B51500890044186068FFF7C5FF656015
:1045400070BDC046F8B50600FFF774FE8478038896
:1045500002349B10A4005A1E0419002A12DD9B008D
:10456000351D0027F61803E080C50134B54209D097
:104570002378002BF8D02868FFF7A6FF80C5013408
:10458000B542F5D1F8BDC046038970B505000024D9
:10459000002B08D06A68A3009858FFF795FF2B8975
:1045A0000134A342F6D8002468686C812C8115F090
:1045B000C6FF6C6070BDC046F8B5050043790600C3
:1045C0000C3500240027002B07D02868FFF77CFF5C
:1045D00080C573790134A342F7DCF8BD10B540689B
:1045E000FFF772FF10BDC046F0B5C64600B51F000C
:1045F000438804000D001600212B21D0344A038883
:104600009046934244D0012B4ED9023323802000A0
:104610003B00320029000C30A568A84723882C4AAB
:104620000500934208D0012B48D9DA071ED5023B7A
:104630009BB22380012B27D0280004BC9046F0BDFC
:104640000288234B9A4207D022480422052104F015
:1046500065F82A2003F066FD012304341C43290079
:104660003B0032000020A0470500E5E700220721BB
:10467000184804F053F82A2003F054FD2388023B25
:104680009BB22380012BD7D12000FFF711FFD3E786
:10469000042205210F4804F041F82A2003F042FDCE
:1046A00023884345B3D0AEE700220721094804F030
:1046B00035F82A2003F036FD2388A6E700220721DB
:1046C000044804F02BF82A2003F02CFD2388ACE7E3
:1046D000FFFF0000A8AE010010B50023FFF784FF24
:1046E00010BDC04610B500230022FFF77DFF10BDAE
:1046F00010B5002300220021FFF776FF10BDC04651
:1047000083888B4203D903688900C858704700200A
:10471000FCE7C04610B50423002801D1180010BDE5
:104720003F2810DD0A4B984206DD0130094BFF306F
:1047300098420BD9084BF1E78300181803210DF0BC
:104740003DF983B2EAE7400083B2E7E783B2E5E7E9
:10475000FF010000FEFF0000FFFF0000F8B5CE469D
:10476000474680B5C38804000D008B4203DB0CBCB8
:1047700090469946F8BD880015F0E5FE2368E68866
:1047800080469946002E0ED100273800AA1B9200C1
:104790000021404415F025FF484615F0D0FE434661
:1047A000E5802360E3E7B7003A00190015F0FEFE4C
:1047B000EBE7C04670B50500C0880C00FFF7AAFF04
:1047C000844200DA040028002100FFF7C7FF70BD13
:1047D000C38870B505000C0016008B4207D8084B43
:1047E000994200D970BD013189B2FFF7E3FF2A6811
:1047F000A3009E50AB889C42F4D30134AC80F1E717
:10480000FEFF000070B5838804000D001600002034
:10481000994202D222688B009858FFF755FE320069
:1048200029002000FFF7D4FF70BDC04670B5060018
:10483000038A05000C360024002B0DD0EA68A30083
:104840009858FFF741FE210000223000FFF7C0FF1B
:104850002B8A0134A342F1D8002468686C812C8132
:1048600015F06DFE6C606C822C82E86815F067FEB6
:10487000EC6070BDC38870B504000D008B4202D29D
:104880008188994201DAA58070BDFFF793FFFAE7AE
:1048900010B50A008188FFF79BFF10BDF8B582882C
:1048A00005008A421AD903688E0098194F1C0468C3
:1048B000BA4207D80021013A92B2AA809200D150A0
:1048C0002000F8BD521A06498C46311D6244920000
:1048D000591815F074FEAA882B68EBE70024EFE75F
:1048E000FFFFFF3FF8B51700828804000D008A42E1
:1048F00018D9511CC38889B299420FDA6B1C9B00EE
:1049000020681E1F521B81199200C01815F057FE17
:1049100023689F51A3880133A380F8BDFFF74AFFA6
:10492000A288EBE73A00FFF753FFF6E770B5050002
:10493000C38882880168094803F0F0FEEB88002BE9
:104940000BD00024064E2A68A3009958300003F0CB
:10495000E5FEEB880134A342F5D870BDE4AE01005A
:1049600008AF010010B50400038902880100034864
:1049700003F0D4FE201DFFF7D9FF10BD54AE010097
:1049800070B50D0004000800FFF7B6FC2A0021896D
:10499000201DFFF71DFF70BD10B50389002B0DD042
:1049A000013B42689BB203819B00D31800221C6824
:1049B0001A602000FFF7A0FC200010BD0024F8E7DB
:1049C00010B50389994207D243688900CC5820006A
:1049D000FFF792FC200010BD0024F8E710B504306A
:1049E000FFF75CFF10BDC04610B514000430FFF7A0
:1049F00079FF2000FFF780FC10BDC04670B50E00A7
:104A0000150004001000FFF777FC2A003100201D7C
:104A1000FFF7F8FE70BDC046F8B5038906000F0029
:104A2000140095009A420ED800209C4201D273686F
:104A300058593900FFF714FB002807D13389013496
:104A40000435A342F0D201204042F8BD2000FCE72B
:104A500010B500220400FFF7DFFF002808DB043454
:104A600001002000FFF71AFFFFF72EFD012010BD07
:104A70000020FCE70323038000234360038143817C
:104A8000014B9B0843807047B8AE010003230380AD
:104A9000024B9B08438000234360704768AF0100CE
:104AA00003230380024B9B0843800023436070472D
:104AB0007CAF010003230380054B9B084380002348
:104AC000436003814381C360038243827047C046D1
:104AD00054AF010010B50489002C0CD043680020AD
:104AE0001A6804338A4203D108E004CB8A4204D016
:104AF0000130A042F9D30120404210BD0020FCE764
:104B00007047C04610B50A000100034803F006FED6
:104B10002A2003F007FB10BDA8AE010070B5840089
:104B2000200015F029FD05002200002115F059FD97
:104B3000280070BD014B1B68186970476403002092
:104B4000014B1B689869704764030020014B1B6888
:104B5000188C704764030020114B026870B5040084
:104B60009A4200D0FEE743680E4D188C2B60FFF789
:104B7000D5FF0D4B0D4A186003602B6819689142F0
:104B800000D0FEE7A26819699142FAD130331C00C7
:104B900000F05CF901232343984700F025F970BD2C
:104BA000094200006403002060030020708E3B92E5
:104BB00010B50248FFF7D0FF10BDC04620A7010086
:104BC000F0B5C646FA2300B51B01C51882B0040033
:104BD00028000E0000F0F6FD002803D002B004BC4F
:104BE0009046F0BDF0233340102B19D00227202B24
:104BF00003D02A3003F096FA0027200000F0DAFDF7
:104C00008046182015F09FFC0F2304001E40AAB216
:104C1000019700960E3B414605F0FEFA2000DDE7C5
:104C20000127EAE770B50D0001214942FEF7E4F9DA
:104C30000400431C04D029002000FFF7C1FF70BD11
:104C40002A2003F06FFAF6E7F8B505000F0016000A
:104C50001C0000F0B7FD002800D0F8BD210038008E
:104C6000FFF7AEFF210007003000FFF7A9FF0600A5
:104C7000102015F068FC0400ABB2B288B98806F0C9
:104C800013FD0021380005F0F3FA0021300005F093
:104C9000EFFA2000012106F09BFC2000DDE7C04672
:104CA000012170B5494204000420FEF7A5F9012155
:104CB000050049420520FEF79FF920210600CA2081
:104CC000FEF79AF9002C0AD0012C12D0022C0BD13D
:104CD0000300320029000320FFF7B6FF70BD01007A
:104CE0002800FFF76DFFF9E72A2003F01BFA0020E8
:104CF000F4E701003000FFF763FFEFE710B5202174
:104D0000007CFFF75DFF10BD10B51023808800F018
:104D10003DF910BD036810B55B699847431E984183
:104D2000C0B210BD10B504F0D1FA431E9841C0B214
:104D300010BDC046808870470048704716FCFFFFD2
:104D400070B5050084B02D0C00900191029284B2E0
:104D5000102269460F48039315F028FC2900200013
:104D6000FDF716FD06002800FDF7BEFF0500002E2A
:104D700003D0F0682900FFF7B5FC00212000FDF703
:104D800007FD002803D0C0682900FFF7ABFC04B082
:104D900070BDC0463003002010B5FFF795FB04F04E
:104DA00087F810BD10B504002000FFF7A1FC142007
:104DB00004F01EF8F8E7C04670B505000400084B83
:104DC0003C350360074BC363280007F0C9FC28008B
:104DD00007F0F8FC200005F02DF9200070BDC0465A
:104DE00084C2010088B8010010B504F061F810BD5C
:104DF00010B503F0FDFF10BD10B503F083F910BD31
:104E000010B5041E06D0FFF777FA034A21000348C5
:104E100003F0F2FE10BDC046E18E0000A54D00007B
:104E200010B5041E06D0FFF767FA034A21000348B5
:104E300003F0E2FE10BDC046994D0000F1460000AF
:104E400010B589B280B204F003F810BDF0B583B09C
:104E500003F0C8F9284B1B681F8D002F2CD00025AC
:104E6000264E05E0B44213D0B44241D82560250057
:104E7000042004F01DF90190019B04005B07F1D5AB
:104E800004F03CF9082004F013F90400B442EBD11B
:104E9000200004F033F9380004F00AF9A04209D0E8
:104EA000174803F03FF9002D06D02C68280004F0C5
:104EB00025F92500002DF8D1124803F053FD124CBE
:104EC000124E651CFF3502E00434AC420AD0206863
:104ED0000028F9D003681B68B342F5D00434984722
:104EE000AC42F4D100F09AFE00F07CFD03B0F0BDBE
:104EF000034803F017F9B9E764030020001000200D
:104F0000E70300006803002054050020394D00002D
:104F1000044B10B51C68FEF767F8FF23FF34201818
:104F2000984310BD640300200020704710B505F0C1
:104F300083F810BD70B50D4C20000AF0C3FF0C4D76
:104F40000C492A00200015F010FB0B4807F028FA46
:104F50000A4C200006F036F92A000949200015F015
:104F600004FB084A084B1A6070BDC046C00200200E
:104F7000B4000020B94D0000300300206803002079
:104F800059B2000000B201008C030020F0B5C64603
:104F900000B582B004000D0016001F00FDF7F8FBFD
:104FA000002808D0320029002000FDF7FFFB02B0E6
:104FB00004BC9046F0BDBFB20F2C16D0282015F0CF
:104FC000C2FA8046A1B2AAB20097094B04F0DEF8FB
:104FD0004146084805F0E6FE0028E3D0404604F0CC
:104FE000EFF8404615F0ABFADCE7C02FE6D0D9E782
:104FF000414D00006803002000B585B08AB201234E
:1050000081B2684607F0AAF905B000BD012110B5CC
:1050100049420248FDF700FC10BDC04690AF0100B8
:1050200010B506F08FF810BD10B5811D014803F0D2
:1050300075FB10BD98AF010010B50A00811D024834
:1050400003F06CFB10BDC046A0AF0100002070470C
:105050000120704700487047F0AF010000487047DA
:10506000B8AF010010B5537884B00C00062B0BD1FB
:10507000D378212B0AD0222B06D1212208492000E7
:105080000AF0BCF804B010BD0648FBE701A904F023
:1050900045F9092201A920000AF0B0F8F2E7C0465C
:1050A000CCAF010016FCFFFF70B590B006004022A7
:1050B0006946C0680AF028F8002821DD6B461C7894
:1050C0007369198800291DD13F252540181D6B469D
:1050D00040182A00591C15F069FA3F2173698C4366
:1050E0001A880020521992B21A80002C08D0402C45
:1050F00018D0802C18D002219970100000221A803C
:1051000010B070BD62B2002A11DB3F25802225401D
:10511000681852009042D9DD6A2004F027FD7369B7
:105120001988D3E79870E8E701219970E5E76820CE
:1051300004F01CFD73691988E7E7C046F0B5C64660
:1051400000B51E001E4B90B0070018680D0014003B
:1051500004F054FA002814D03F2333435BB298463E
:105160003F2C14DC6B46220029002643581C1E707D
:1051700015F01CFAB868402269460AF03FF800288A
:105180001CDA0120404210B004BC9046F0BD402E15
:1051900012D043466A4613706B463F222900581CC2
:1051A00015F004FA40226946B8680AF027F800288A
:1051B000E7DB3F353F3CD3E73F23EBE70020E2E767
:1051C000800A002070B5057E04000020002D06D066
:1051D000C030002B04D003002000FFF7AFFF70BDEC
:1051E0004038F8E770B50500140072B64069083021
:1051F00015F0DCF962B66B692800191D221D4023E9
:10520000FFF79CFF70BDC046F8B51B4B4746CE4626
:1052100099461A4B80B59846194D1A4F1A4E2B785D
:10522000002B1BD14B465B6904225E604146484619
:10523000FFF7D8FF7B6904225E6041463800FFF724
:10524000D1FF14242B78002BE9D13220013C03F04C
:10525000CFFD002CF6D12B78002BE3D00B4C20682F
:10526000002803D003F04AFF0023236000232B70A3
:105270000CBC90469946F8BDE8030020900300203E
:10528000520B002024050020FDF9923694030020E3
:1052900070B504000E001500FC2A0EDD72B64369DD
:1052A0000422191D0023FFF749FF40232A00310083
:1052B0002000FFF743FF62B670BDFFF793FFFBE7E7
:1052C000F0B585B00500FFF7EFFE002838D06C6917
:1052D000A278002A36D121896368A1800121E28069
:1052E0002976082B00D1B6E013D96F4A934200D13A
:1052F000AAE058D96D4A934200D198E06C4A934293
:1053000068D06C4A934200D184E001232100E380FD
:1053100042E0032B3AD017D8012B4ED0022BF4D108
:10532000654BDC68654B2200B43A9A4200D9AFE085
:10533000200015F0ACF9020021002800FFF7A8FFBB
:1053400005B0F0BD0020FBE7042B22D0052BDCD1FB
:10535000211D402304222800FFF7F0FE5649574A3A
:10536000CB68B43B93420CD84B681900B4399142D6
:1053700007D8DA0705D544220F20A9688A5C1040B7
:105380009847F12004F0F2FB696905E04C4A4D4B67
:105390001A6002F0BBFE6969043140230422280030
:1053A000FFF7CCFECCE7092B1CD0102BADD1464922
:1053B000280004C9FFF76CFFC2E70223A360FE3395
:1053C000E26022616361211DC03B14222800FFF7C7
:1053D000B5FEB5E73D4B28001A683D4B1968FFF74D
:1053E00057FFADE7236921009A001032904204D0A4
:1053F000F52004F0BBFB23696969E6685A1E143482
:10540000002BC9D023001F68181B87510433013AB1
:10541000F9D2C1E72F4BE2681B6828001A602E4BB7
:1054200004221970211D4023FFF788FE88E7FFF74B
:105430008DFB284B02901B68082202A928000193CB
:105440000393FFF7CFFE7BE7244A254B1A6002F057
:105450005DFE6969A0E7102802D0FB2004F086FBFE
:1054600026693F2E17D82000731E0830E468002EEE
:1054700005D00200111A095902C2013BFAD26B6928
:10548000B600191D321D40232800FFF757FE57E7CD
:105490000322144C50E7FD2004F068FB2000731E2B
:1054A0000830E468E5E7C04693BD2011E066FC5390
:1054B000101590703159A527F01F00004B1F0000F8
:1054C000EF6926F0FC7F002054060020980300209E
:1054D0009403002060030020520B00207FACEBF00F
:1054E0000478002004B0010070B504000D0005F040
:1054F000CFFB044B65610833236000232000237633
:1055000070BDC04608B0010070B504000D0005F084
:10551000BFFB00232376034B656108332000236023
:1055200070BDC04624B00100F0B50400C56983B069
:105530002900294803F0F2F8E369002B1BDB6068BF
:10554000A91E6B882A8809880190A06900902348C9
:1055500003F0E4F82B88224A934204D0D022D201EF
:10556000934210D0FEE7E3690233E3616368032BE3
:1055700028D003B0F0BD03225B005B08E361194B48
:105580001B681A60F5E72600E369174FDA1CA26171
:10559000164A0233164D13602436164B3868AD1B7D
:1055A0001D60002801D003F0A9FD280003F080FD54
:1055B0002A003100386014F0F9FF01220E4B9343AA
:1055C000E361D6E70022074B1B681A608023A269BB
:1055D0001B061343A361CCE740B0010048B00100B3
:1055E0004068000060030020940300209003002026
:1055F00000800020980300200952000000B5684692
:10560000FFF792FF00BD704770B50124644221008E
:105610001920FDF7F1FC40B200F0CCF821000500A4
:105620001820FDF7E9FC40B200F0C4F80600D020D5
:1056300014F089FF04003200290002F04DFD014BF7
:105640001C6070BD9C030020F0B5C64600B5134F2A
:1056500082B03B6804000E009046002B15D030004D
:1056600000F0C4F805006400A1B244462A0038687E
:105670000832036800949C693300A047002807D1D2
:10568000280002B004BC9046F0BDFFF7BDFFE6E77E
:10569000280003F033FD0025F2E7C0469C030020FC
:1056A000F0B50B4E0400306883B00D0017000028E1
:1056B0000AD02A006400A1B2046800976B6808321F
:1056C0006469A04703B0F0BDFFF79EFF3068F0E7C4
:1056D0009C030020F0B5C646040000B53F2835D82D
:1056E000214D2B5D002B09D0204A126820498C46A1
:1056F00063449B00985804BC9046F0BD1B4B1D4E64
:105700009846317818680131890003F023FD43463B
:105710001860182014F017FF202321005B420700B7
:105720006431E2B2E31817D41348D8400123C0070C
:1057300010D438000AF05CF8434631781A684B1CE4
:10574000DBB2890033708F502B55CFE72A2002F04F
:10575000E9FCC5E70233ECE72020074B001B834040
:105760000648E0401843E1E7A0030020E0030020E2
:10577000FFFFFF3F530B0020FF030000FC0F000062
:10578000012110B54942FDF737FCFFF7A3FF10BD1B
:1057900070B504000D003F2802D92A2002F0C2FC97
:1057A0002800FFF797FF024B5A5D1A5570BDC0469F
:1057B000A003002010B5002802DBFFF78BFF10BD0F
:1057C0000020FCE7084B10B55C1CFF3402E00433FA
:1057D000A34207D01A68002AF9D091888142F6D1F5
:1057E000100010BD0022FBE75405002010B5010099
:1057F0000020FDF735F810BD014B98687047C04692
:105800003003002010B503685B69984710BDC0469F
:1058100010B50368DB68984710BDC046036810B533
:105820005B689847431E9841C0B210BD10B503682D
:105830001B68984710BDC04670B50D0016000400E7
:10584000036802219B6C984732002900E0891023ED
:10585000FFF79CFB70BDC04670B505000C0016003C
:1058600002290EDB03290DDD05290ADC022103686C
:105870009B6C28009847E889102332002100FFF72D
:1058800085FB70BD036801219B6CF2E7F0B504391C
:105890004F464646D6464B424B419146C0B5984688
:1058A000060004F0DBFB4B4604000D00DF1706E0AA
:1058B00004F0D4FB001BA941B9421FD81CD03368A7
:1058C00030005B68984782464045F1D104F0C6FB42
:1058D000804606E004F0C2FB001BA941B9420DD886
:1058E00012D0336830005B6898478245F2D004F0EC
:1058F000B5FB4346C01A02E08145E0D200201CBC43
:1059000090469946A246F0BD8145EAD2F6E7C046E8
:1059100010B50123002903D001394B4259414B00F6
:1059200002681900126C904710BDC04610B50AF00D
:1059300007F910BDFA2210B50368D2001C69014BAB
:10594000A04710BDDC05000010B50AF0A3F810BD9B
:1059500070B5D31872B615780132802441600326E1
:10596000013EFDD12C4200D101600626013EFDD151
:105970000160641004D0E4B20226013EFDD1EDE7DF
:105980009A4200D2E7E762B670BDC04670B50D001E
:1059900001214942FDF730FB03001E3B0400012BAF
:1059A00000D970BD0021CB20FDF726FB002811D1C6
:1059B0001F231A00E1170A40C90E121964181C406F
:1059C000074B52119C460223641AD201A418644466
:1059D0002370E6E729002000FFF7DAFEE1E7C04682
:1059E000404400410121F8B5494200AF9620FDF73F
:1059F00003FB41B21420FFF7C9FF01219720494260
:105A0000FDF7FAFA41B21620FFF7C0FF01211B2073
:105A10004942FDF7F1FA40B2FFF7CCFE002860D012
:105A20000368314C5B699847444301210E20494289
:105A3000FDF7E2FA40B2FFF7BDFE002803D003688D
:105A40005B69984744432000FCF72CFF0121142098
:105A50004942FDF7D1FA40B2FFF7ACFE041E07D071
:105A60000021C820FDF7C8FA42001218002A0CD104
:105A70001E4B1F4A1968914205D100221A601D4B26
:105A800001321B681A60BD46F8BD6E46D31DDB08A7
:105A9000DB00F31A9D460021684614F0A2FD23683E
:105AA00000211B6820009847012003F0A1F923681A
:105AB00000211B682000257C98471F2301212B40D3
:105AC00099400D4B68119C46C00160446A461E23F4
:105AD000FFF73EFF236800211B6820009847B5466A
:105AE000C6E7014CA1E7C046A10D0C0004780020D8
:105AF0007FACEBF06003002014440041F8B50124B2
:105B0000644221001320FDF777FA40B2FFF752FEFE
:105B1000210005001220FDF76FFA40B2FFF74AFEA0
:105B2000210006001720FDF767FA40B2FFF742FE9A
:105B30000700982014F007FD04003B003200290004
:105B40000AF010F9014B94341C60F8BDE403002006
:105B500070B5074C05002068002804D003682900B0
:105B60009B68984770BDFFF7C9FF2068F6E7C046FD
:105B7000E403002070B5114E0500306882B00C00BF
:105B8000002816D0002D0DD029006A680831002C9D
:105B90000CD023006468083305680094EC68A047C3
:105BA00002B070BD00220021002CF2D1002400239D
:105BB000F2E7FFF7A3FF3068E4E7C046E403002004
:105BC00070B5074C05002068002804D00368290040
:105BD0001B68984770BDFFF791FF2068F6E7C04645
:105BE000E403002070B5074C05002068002805D0AC
:105BF000036829005B680822984770BDFFF77EFFA5
:105C00002068F5E7E403002010B5642003F0F0F805
:105C1000014803F08BFF10BD0404002010B5094BB0
:105C2000094C0A49E3600A4B2000236103F07EFC23
:105C30000849200003F07AFC0749084802F0CEFF2B
:105C400010BDC046BC00002004040020E803002072
:105C500070B0010024050020B18E0000095C000036
:105C600070B504000D000A00002301000848FFF78A
:105C7000A9FA00232A0021000648FFF7A3FA064BE1
:105C80001B68002B02D029002000984770BDC04639
:105C9000E8030020240500204005002010B508215D
:105CA0000548FFF7DDFF054802C8FFF7D9FF0221CD
:105CB0000348FFF7D5FF10BD60B001005406002077
:105CC0006CB0010010B5064803F010FB054C064807
:105CD0002100FFF709FC21000448FFF715FC10BD67
:105CE0000404002020040020E803002024050020F4
:105CF00010B5FEF75DFF002010BDC04670B5D3188B
:105D000072B615780132802441600326013EFDD130
:105D10002C4200D101600626013EFDD101606410D5
:105D200004D0E4B20226013EFDD1EDE79A4200D252
:105D3000E7E762B670BDC046F0B50121D6464F46D2
:105D400046464942C0B582460820FDF755F9012173
:105D500044B24942002C40DB0720FDF74DF9050015
:105D60002000FFF727FD070068B2FFF723FD036857
:105D700000211B6804009847012003F039F8002334
:105D8000994653465B68002B22DD53464B441B7AF1
:105D9000082698468025414629404B1E99413B687C
:105DA00038001B689847236801211B68200098472A
:105DB000236800211B682000013E98476D08002ED3
:105DC000E9D101239C4653465B68E1444B45DCDC4A
:105DD0001CBC90469946A246F0BD1420FDF70CF974
:105DE00040B200281DDBFFF7E5FC53465E68036800
:105DF00000211B680500047C98471F2301212340D4
:105E00009940094B52469C466011C00160443300E2
:105E10000832FFF773FF2B6800211B6828009847A2
:105E2000D6E70B20DFE7C04614440041024A430096
:105E30001068C0187047C0466403002000487047CF
:105E400016FCFFFF012070470120704700207047BB
:105E50008020C0027047C04600487047C8B00100AB
:105E6000C36810B5986A802349029B0001F04AFF7D
:105E700010BDC046F0B5C646C46800B5236B05002A
:105E80000E00904698421CD0E76A2063002F05D090
:105E9000380000F0A9FF380014F051FB290001225E
:105EA0001531A06A00F072FFE062710201F0DEFAC3
:105EB00080224146E06A920001F0ECFA04BC904670
:105EC000F0BDE06AF1E7C04670B504000D0004F0D3
:105ED00045FD044BA5620833236000232000E362E4
:105EE000236370BDD0B00100F0B504001C4F83B037
:105EF0003A68002553780133537004F013FEA36A07
:105F0000186803681B6898470002164B009022002F
:105F100015490195200004F0ABFD2000134A14211F
:105F200004F042FE8D23A06A5B00C55201F0A4F884
:105F3000002810D014250E4E030001950268083386
:105F4000009231002200200004F092FDA06A01F0CE
:105F500093F80028F0D1386803F0E8FD03B0F0BDF5
:105F6000800A0020ACB00100615E0000BCB00100FE
:105F7000755E0000F8B5CE46474680B507008046FE
:105F800001CF894603683A005C6880235B00A04724
:105F900043465A1D3E00FF323C0002E00134944269
:105FA00007D02378FF2BF9D000200CBC90469946EF
:105FB000F8BD434618688021036889005D68802326
:105FC0003A005B004944A8473D0002E00135AC427D
:105FD00003D02B78FF2BF9D0E6E7434618688021E1
:105FE0000368C9005C68802349445B003A00A0470D
:105FF00002E00136B54203D03378FF2BF9D0D3E766
:106000000120D2E78622002370B5016001215200F1
:106010008354043281500A328352163A835010233B
:106020000022064DFF33C2542B880400002B02D1FE
:1060300005F088F82880200070BDC046500B002075
:10604000F0B50668C646336800B55F680B0A984627
:1060500086235B00C35C04000D00984502DB1248F8
:1060600002F060F884234146FF205B00E358000201
:10607000595CFF2384462B4063440904C9188023DC
:10608000221D5B003000B847012002E00130FF28EC
:1060900007D023181B79FF2BF8D1284304BC904666
:1060A000F0BD0020FAE7C046B6030000F0B54F4649
:1060B0004646D6460D00C0B590460700002A23D0BC
:1060C00080235B029946441D061D8944FF343868CD
:1060D0003200036829005B689A4680235B00D04742
:1060E000330002E001339C4208D01A78FF2AF9D02D
:1060F00000201CBC90469946A246F0BD0135FF35F4
:10610000A945E4D14046F4E7FFF734FFF1E7C04684
:10611000F0B54546DE4657464E468223E0B55B0065
:10612000C35889B00500002B02D0314801F0FAFFB6
:10613000286803AC03681B689847030298462D4BF8
:106140000222039300232371A360E3602A4B627150
:1061500023614346002B32D000239B4600931B3320
:10616000FF339A46254B002699465346EB5A4B453A
:106170000DD05A4631002800FFF798FF002806D1BD
:106180002868310003681B69984701239B468023D8
:106190005B02F718B84519D8164B02220393002367
:1061A000286823716271A360013B154AE380236173
:1061B0000368E2609D68220014233100A84709B0FB
:1061C0003CBC90469946A246AB46F0BD6B4628685B
:1061D0001A880368E2809A68310001921423019EB4
:1061E0002200B047009B3E0001339BB20093BCE706
:1061F000B60300008E347635DCC60146F0FF0000A1
:1062000063F09FD0F0B54546DE4657464E4687239D
:10621000E0B58FB003915B000A00C15C05009142BC
:1062200000D10DE186235B00C35C9A4200DD07E1EB
:106230000B040293039B06AF1B04202200213800AD
:106240001C00019314F0CDF92B0001CBFF219A46DD
:106250000368A4465C688023090261445B005246DF
:10626000A0471F2189461E398846FE318C468B2661
:10627000193101238B466A1D76001178002913D14C
:1062800048464446184084402000591189007C58F3
:106290002043785061461170A95B58460139A953D3
:1062A0005946695A0131295201330132FF2BE4D199
:1062B000029E0023310028680593036805AA9C68A4
:1062C0000C310423A0473100FF26286836020368FA
:1062D000B4469C68802352465B006144A047019B02
:1062E00001245E1C1F2399461E3B98462B00FF3657
:1062F00055469A4604E001360134FF36FF2C24D07F
:106300004A4641462240914063119B00FB580B4294
:10631000F1D153461868310003682A005B680134E4
:106320009B4680235B00D8475346019A1868029B1E
:10633000991A036889199B682A009B4680230136B5
:106340005B00D847FF36FF2CDAD153461868AA46BF
:106350001D000368019F5C68802352465B00390082
:10636000A0472A002868029E0368B11D9C680A3273
:106370000223A0473100364B28680593036810318B
:106380009C6805AA0423A0470023390028680593C8
:10639000036805AA9C6810310423A04701232868DC
:1063A0005B42EA686B812B616B6103680132EA60D2
:1063B0001B69390098478020002200234000A9185B
:1063C0000979FF2900D0130001328242F7D12868F1
:1063D000019E02680133946831005246A0473100A3
:1063E0001C4B28680593036805AA9C680C3104239C
:1063F000A047862040002B5C0022002B14D0842470
:10640000872664007600039F03E02B5C01329342F1
:106410000ADD2B599B1819788F42F6D1A95D0132FC
:1064200019702B5C9342F4DC6A468723127B5B0075
:10643000EA540FB03CBC90469946A246AB46F0BD2C
:10644000054801F06FFE87235B00E95CF0E6C0467B
:10645000DCC6014663F09FD0B6030000F0B5DE460F
:1064600057464E4645468623E0B55B00C25C043B7A
:106470008BB00600FF21C05814F0B3F800230022AF
:10648000009301930293013B03931F005B4B002495
:106490009346914605AD9A460DE07B1C62D10123DF
:1064A00027009B46994686235B009846F35C01349F
:1064B0005A1CA24231D93068210403682A005B6863
:1064C00098461423C0472B685345E6D12B79002BFF
:1064D000E3D10E226B79FF32B354009AAB68944635
:1064E0009C4462460092EA8845498A4203D0454965
:1064F0002869884240D07A1C34D1434AE968270091
:1065000001939142CFD00123994686235B009846A0
:10651000F35C01345A1CA242CDD88821009A49006C
:10652000501C3A4A424370584240725087225200EF
:10653000B7547A1C16D00E22FF32B25C002A11D05A
:106540005B089A420EDC4B46002B2FD10122029BA6
:106550009146019A64339A4206D903993000FFF7B5
:1065600051FE01E00023994648460BB03CBC9046E2
:106570009946A246AB46F0BD86214900715C8A422D
:10658000F0DA8421490071588A181178FF29B2D1B4
:10659000039B1470013307D0AB68029A934200D377
:1065A00081E7039402937EE7AB68FAE73900184865
:1065B00002F0B4F8114B144A059300232B710233F7
:1065C0006B71033BEB802B615B46EA60002B05D0CF
:1065D00043460098F15C0BF067F90190019B30682D
:1065E000AB6003683F0439001B69984730682A0094
:1065F000036839009C681423A047B5E78E347635CC
:10660000FFFF0000DCC6014663F09FD0930100014C
:1066100010B10100F0B54546DE4657464E46E0B59E
:1066200085B004000D1E03922ED0039B002B00D0DA
:10663000A5E000220E239346FF33E35C99465B45B9
:1066400030D800230293039B002B00D09FE05248D8
:1066500002F064F8514801F065FD84235B00E358C3
:10666000029A2000995CFFF7CDFD2000FFF7F6FEAF
:10667000002802D1494801F055FD05B03CBC9046C8
:106680009946A246AB46F0BD8A235B00E152023335
:10669000E1520233E1520C3BC35C9946002BECD033
:1066A00000239B46231D9A460023261D02939846ED
:1066B000631D0193FF3686235B00E35C9B4502DB91
:1066C000364801F02FFD84235A465B00E3582068CA
:1066D000995CFF231B029C46036809045F688023C2
:1066E00061445B005246B8478C228B205200019BCC
:1066F00000219446400009E0013189B2002D02D109
:10670000225A0132225201339E4210D01A78002AB6
:10671000F2D0002DF7D1FF2A1ED08A228A275200FC
:10672000A25A7F0001320133E2539E42EED18845E6
:1067300002D25B468846029301239C46E344CB4544
:10674000B9D34346002D0DD0002B00D085E7039B25
:10675000002B00D17BE71AE062466746A25A01325D
:10676000E253D0E7802B00D977E78C2243465200D2
:106770009B00A25A4344934200D96EE77DE70E2264
:106780008623FF32A25C5B00E35C934656E7044835
:1067900001F0C4FF5EE7C0463CB10100B603000053
:1067A00028B10100F8B50400006803681B68984729
:1067B000FF230200C01718408018001201380D3363
:1067C000C0B2E05413F0D8FE84235B00E0502000F8
:1067D000FFF744FE00280DD18D235B00E25A194BD0
:1067E0009A4211D02000FFF793FC2000FFF736FEFD
:1067F000002805D0002200212000FFF70BFFF8BD84
:10680000114801F08FFCF5E7206803681B68984782
:106810000702E7D0002505E080235B029C46654423
:10682000AF42DFD929002000FFF7A4FB061EF3D1F9
:10683000862384255B00E0546D00605913F07FFED1
:106840006651DCE7F0FF0000B6030000F0B54646F5
:10685000D6464F460500C0B58846944600294FD01D
:106860000E23FF33C15C013BC65C8FB2711A01235A
:10687000002904D001205B0003439942FBD2882009
:1068800040002858284A294C5043A1464844040057
:106890001C40A142F7D988235B00E85063463C19AD
:1068A000A4B2002B36D100239A469946210289B220
:1068B0002800FFF7C5FB80B2002818D10134A4B22C
:1068C000A642F3D14B46002B16D05346002B1DD1C8
:1068D0003C00424601212800FFF79CFE210289B2BC
:1068E0002800FFF7ADFB80B2CA460028E6D01CBCEA
:1068F00090469946A246F0BD01233C009946D5E753
:106900000E23FF33C65C00210027AFE7084801F0E3
:1069100009FCDDE7FF23614628009943FFF790FB60
:1069200080B20028BFD0E2E70D6619005FF36E3C2D
:10693000B6030000F0B54646D6464F46C0B582B015
:106940006B4604000E00DA71FF2A63D0002A2ED0B5
:106950008A225200A35A0133A3520432A35A013BA4
:10696000A352FF27330A374099461E0025682B683B
:106970009B68984686235B00E35C4B4502DC284815
:1069800001F0D0FB84235B00E3586A46995DFF2346
:106990001B029C4609046744C919012307322800D9
:1069A000C04702B01CBC90469946A246F0BD1732C3
:1069B000FF32A35A0133A352023AA35A013BA35216
:1069C0000E22FF32A25C33129342CADAFF272368F9
:1069D000374098461B689B689A4617D086235B0011
:1069E000E35C360AB1469E420CDA84236A465B00B9
:1069F000E3580732995D3B020904C9184046012358
:106A0000D047B3E7064801F08DFBEEE7044801F0FC
:106A100089FBE3E7024801F085FB6B46DA7995E7ED
:106A2000B603000070B51025FF35435D0400002B50
:106A300007D00A4E31880A4802F00AFA635D002B3B
:106A4000F8D110230122FF33E254033BE35C002B17
:106A500000D070BD2000FFF7A5FEFAE7500B002024
:106A6000FF030000102310B5FF33C35C84B00400A3
:106A7000002B02D1074801F055FB10230022FF3301
:106A8000E254054B05491A886846012305F066FC67
:106A900004B010BDB6030000500B0020FF0300003F
:106AA000F8B586267600845D0500002C0BD18D2775
:106AB00010237F005B42C353FFF7B4FF2800FFF7AA
:106AC000D1FFEC53AC5D6042C00FF8BDF0B5574646
:106AD0004E46DE464546E0B589B00A7800AF06006E
:106AE000B960002A00D1B3E05B4B5C4843430131FD
:106AF00053400A78002AF9D1FF321A40022A00D9FD
:106B00009EE0103BDBB29846B86813F0C0FD02303F
:106B100083B2BB61402B00D996E00E23321D3A6050
:106B20000022FF33F35C7A60002B76D035682B6847
:106B30005B6899467B681C0486235B00F35C240C2D
:106B4000A34202DC464801F0EDFA84235B00F358CF
:106B50003A68195DFF231B029C46802309045B00F1
:106B600028006144C8477B6801241B021BB27B617B
:106B7000BB6945465A1E0733DB08DB00FA603B6100
:106B800002E00134FF2C3ED033191B79AB42F8D11F
:106B90006B463A69FB619B1A9D467B69EA46234333
:106BA0009BB29946FF234A461340984638D04B463D
:106BB0001B0A9B4686235B00F35C9B4502DB28484F
:106BC00001F0B0FA84235A465B00F3583068995CB0
:106BD000434609041B02C918036852465B689B467A
:106BE000BB69D84753461B78012B07D15046FA683A
:106BF0000130B96813F0CBFC002815D0FB690134D3
:106C00009D46FF2CC0D17B68A84601331A007B60EB
:106C10000E23FF33F35C934288DC00239B4606E09F
:106C20000F4801F07FFAC2E7FB69CB469D46584604
:106C3000BD4609B03CBC90469946A246AB46F0BD65
:106C4000FF2A00D05EE75CE7054801F06BFA64E7D5
:106C5000C523984658E7C046C59D1C819301000195
:106C6000B603000070B505000C00FFF7DBFE210045
:106C70002800FFF72BFF04002800FFF7F3FE601E3B
:106C80008441E0B270BDC046F0B557464546DE4689
:106C90004E46E0B50B7883B005000F00002B69D09D
:106CA0000A00364C36494C4301325C401378002BC5
:106CB000F9D1FF332340022B05D9FF2B03D0013339
:106CC000E4B2594304E0103CE4B22D49631C59433B
:106CD00088235B00EA5828005140E9500022002137
:106CE000FFF7B4FD8046380013F0D1FC80222B1D45
:106CF000023086B25200FF2118009B4613F071FC4F
:106D0000012339002B71681D721E13F04FFC2B6894
:106D1000FF279A461B689B68019343461F4025D076
:106D200043461B0A9BB2994686235B00EB5C994560
:106D300002DB144801F0F6F984234A465B00EB5865
:106D40003F02995C504609043300C9195A46019E16
:106D5000B047280022004146FFF7ECFD404603B053
:106D60003CBC90469946A246AB46F0BD054801F0B2
:106D7000D9F9D5E70449C524AAE7C046C59D1C81B9
:106D800093010001B6030000B23701C6F8B5050053
:106D90000C001700FFF746FE21002800FFF796FEC3
:106DA000061E06D1002F1CD021002800FFF76CFF23
:106DB0000600202013F0C7FB0023002204004383B9
:106DC0000382C38143610533FF338274C274EA587E
:106DD000056086814260E8502800FFF743FE2000EE
:106DE000F8BD0020FCE7C046822301685B00CA585A
:106DF00010B50400904214D0002A09D0536898427C
:106E000004D10AE05A68944208D01300002BF9D14B
:106E1000054801F087F9200010BD130062685A6030
:106E2000F9E74268CA50F6E7B6030000F0B501235F
:106E300002E00133402B27D0C4182479002CF8D16C
:106E40005F1CDD1C5C1D002906D0C3189E79C31988
:106E50001B79360233430B80002A00D017802A1D8D
:106E60008218EB1C1178002907D15178002904D130
:106E700004192179002900D11D009C1C0332033321
:106E8000FF2CEFDD2800F0BD452443254127DAE73C
:106E9000F0B54E464546DE4657468946E0B50024E5
:106EA0000600002585B0031D019100933368FF277C
:106EB0009A461B685B689B464B461F4000D187E0A3
:106EC0004B461B0A9BB2984686235B00F35C9845B1
:106ED00002DB674801F026F9842342465B00F35841
:106EE0003F02995C802309045B00C919009A50464F
:106EF000D8473379002B73D002AB991D00223000A4
:106F0000FFF794FF831CFF2B24DC31184A790B799F
:106F100012021343574A934230D0F14306303718D8
:106F20008A4690460EE001341419002D1BD15346B9
:106F3000DB19FF2B0EDCBA787B7812021343033780
:106F400043451BD03A78FF2AEDD11D005346DB198B
:106F5000FF2BF0DD02ABDB88464A934213D0002DB5
:106F600005D19946A2E7424801F0DCF8DFE7404846
:106F700001F0D8F802ABDB88994697E702ABDA88D4
:106F80003C4B9A4228D1002D33D1019B994528D002
:106F9000FF2537683B685B689846019B1D405DD0C4
:106FA000019B1B0A994686235B00F35C994502DB33
:106FB0002F4801F0B7F884234A465B00F3582D02AE
:106FC000995C3800090449194023009AC04708E039
:106FD000274801F0A7F873E7254801F0A3F8B9E7BF
:106FE0000024200005B03CBC90469946A246AB4622
:106FF000F0BDFF2733682F4098461B685B689946B1
:1070000030D086235B002D0AF35CADB29D4202DBDB
:10701000174801F087F884235B00F3583F02595D5D
:1070200080230904C9195B00009A4046C847002123
:10703000FF2302E01100013B18D3F2181279FF2A56
:10704000F8D100E013005A1E03D3B0180079FF28CE
:10705000F8D0994200DA1900641899E7044801F061
:1070600061F89DE7024801F05DF8CAE70023F0E708
:10707000B6030000FFFF0000F0B54546DE46574668
:107080004E46E0B595B00500FFF7CCFC8D220E21F1
:107090005200FF31AB5A685C2C1D1912A246904673
:1070A000884200DC71E0FF2280271A407F00914671
:1070B000BF1A202F00DD20271B0A9B4686232C6841
:1070C0005B002268EB5C56689B4502DB314801F0AF
:1070D00029F884235A465B00EB582000995CFF2373
:1070E0001B024B440904C91852463B00B047002418
:1070F00001AE08E02B191B79033BDBB2FB2B0FD948
:107100000134BC4234DA4B461B19FF2BF2D921481B
:1071100001F008F82B191B79033BDBB2FB2BEFD8EE
:107120004346E95A2800091989B2E9520023F1803F
:10713000B380FFF7ADFE434642463060EB5A013361
:10714000AB522B79012BDBD1691D03A813F097FA01
:107150004C223100504613F029FA2800FFF782FC38
:10716000504615B03CBC90469946A246AB46F0BD91
:1071700043464246EB5ADB199BB2AB520E22FF321A
:10718000AA5C1912914200DA8DE72800FFF76AFC29
:107190000020E6E7B6030000F0B54E464546DE4661
:1071A0005746E0B5C48983B005008946002C01D15B
:1071B0008489C4814B461B88A34220D0FF262B68BC
:1071C00026409A461B6898461B685F686BD08623EA
:1071D00052465B00D35C240A9C4249DA2B68514634
:1071E0001A1D84235B00CB583602195D80230904E5
:1071F0005B0089194046B8474A46EB8913806B46C5
:107200000022991D2868FFF711FE841CFF2C56DC14
:107210002B6853499B461B185A791B7912021A4353
:107220008A4229D02E8A002E00D18FE0431D0730DC
:1072300058448C460AE04478017824020C436445A3
:107240001AD00333033096421ED022001F00FF2BBA
:10725000F1DD964233D16B46414ADB8893420BD035
:10726000EB81002349462B822800FFF795FF04E0BD
:107270003C4800F057FFB1E7002003B03CBC90460B
:107280009946A246AB46F0BD3B005B441B79EB74CC
:10729000002CE0D0FF2B16D00133EB7400232C829E
:1072A000AB740120E9E72F4800F03CFF86235246EB
:1072B0005B00D35C240A9C4200DA8FE7D8E72948B8
:1072C00000F030FFC7E7002249460A805A4612689C
:1072D0002340904612681F1E5268914632D0230AFE
:1072E0009BB29A4686235A465B00D35C9A4525DAC0
:1072F0002B6859461A1D84235B00CB585146595CB4
:10730000802309043F02C9195B004046C847002694
:107310002968FF2302E01600013B1ED3CA18127928
:10732000FF2AF8D100E013005A1E03D38818007911
:10733000FF28F8D0B342B0DA3300AEE7094800F0D6
:10734000F1FED5E7074800F0EDFEC8E75C4423797D
:10735000EB74002AB3D014009CE70023EAE7C04690
:10736000FFFF0000B6030000F0B5DE4657464E466C
:107370004546E0B5438B87B006008B461700FF2BD0
:1073800002D00068FFF74EFB04AA9446062363442C
:107390001A00039300231380002F60DB4FD00022DC
:1073A000B37C01923BE0E41ABC4200DD3C005A464B
:1073B000002A27D03368358A99461B689A461B688D
:1073C0005B680293FF232B40984634D086224B46BD
:1073D00052009B5C2D0A9D4202DB224800F0A2FE77
:1073E00084234A465B00D358B27C595D43461B0256
:1073F000D3180904C9185A4623005046029DA847CD
:10740000B37CA344019A1B199446A444624601929A
:107410007269DBB212193F1B7261B37411D0F47C34
:10742000A342C0DB03993000FFF7B6FE002808D066
:10743000F47CB37CB7E70B4800F074FEC6E700238A
:107440000193738BFF2B02D03068FFF70BFB019881
:1074500007B03CBC90469946A246AB46F0BD024FF1
:107460009DE7C046B6030000FFFFFF7F426910B5ED
:107470008A420AD007D9002200238274C2740022F3
:107480000382C38143618A1A00D110BD0021FFF736
:107490006BFFFAE710B50023002A02D0FFF764FF64
:1074A0000300180010BDC046F8B55746DE464E46EC
:1074B00045463A4BE0B5478B04009F4232D0002F3F
:1074C00005D03CBC90469946A246AB46F8BDFF238A
:1074D000012163834942200098466569FFF7C6FF92
:1074E000E38967772383678BA37C268A2377002F22
:1074F0001DD1206882235B00C358002B0CD0A189CA
:1075000002E05B68002B07D09A898A42F9D1626950
:107510009A605B68002BF7D129002000FFF7A6FFD7
:107520006683CEE71E4800F0FDFD678BC7E7236842
:107530009B461B6899461B685B689A4643463B40DE
:10754000984627D086235A465B00D35C3F0A9F4269
:1075500002DB134800F0E6FD236859461A1D842318
:107560005B00CB584846D95D434609041B02C91845
:1075700080235B00D0472068031DFF33C11C05E05A
:10758000627F013B013262779942B3D01A78FF2AB9
:10759000F6D1AFE7024800F0C5FDD3E7FFFF0000DA
:1075A000B6030000822302685B0010B50400D058C7
:1075B00000280AD0A2898389934203D109E08389F4
:1075C000934206D040680028F9D1044800F0AAFD93
:1075D0000020FFF769FFA06810BDC046B603000099
:1075E0008821F0B54E4645465746DE468289A34B74
:1075F00001320468534349006258E0B5276853409C
:1076000063503B68067E5B6885B09846038B050037
:107610009946002E00D1ECE04B461B0A9946862382
:107620005B00E35C994502DB954800F07BFD2B682D
:1076300049461A1D84235B00E3583602595C8023B7
:10764000090489195B003800C04703AA0021286893
:10765000FFF7ECFB831C04002E68FF2B62DC031D8C
:10766000F318002006E0621DE11C03332000FF2A0E
:1076700055DC0C001A78FF2AF5D15A78FF2AF2D18E
:10768000270000280CD0040033199B79FF2B03D06E
:107690007B4800F047FD2E686B8B002B00D0B0E0DC
:1076A000002F3FD06A8B01213000FFF7CFF8012275
:1076B000010068832868FFF73DF92B681C689A462B
:1076C00023689E682B8B99462B7E9846002B00D111
:1076D00093E04B461B0A9946862352465B00D35CD7
:1076E000994502DB664800F01DFD842351465B008E
:1076F000CB584946595C43462A001B020904C91865
:107700001A32C91902232000B04700232B776B7768
:1077100005B03CBC90469946A246AB46F0BD00275A
:10772000002CB1D1002200213000FFF78FF802AA0F
:107730009446062363441880010002222868984674
:10774000FFF7F8F8022302AA1370002353702B6886
:107750001E689A4633689F6843461B88994643468D
:107760001C78002C00D181E04B461B0A99468623E9
:1077700052465B00D35C994502DB414800F0D2FCE5
:10778000842352465B00D3584A46995C240209047C
:1077900009190223300002AAB8472B682C7E1E6804
:1077A0009A4633689F682B8B9946002C5AD04B46DB
:1077B0001B0A9946862352465B00D35C994502DB3F
:1077C0002F4800F0AFFC842352465B00D3584A4652
:1077D000995C02AB9B8824021C1909040223300027
:1077E00009194246B84743461B882E682B83042755
:1077F00058E7234800F096FC0EE7214800F092FC81
:1078000067E702AA944606236344984642462B7FC4
:10781000013B137033689B461B689B6801932B8B5D
:107820009A462B7E9946002B24D053461B0A9A4633
:1078300086235B00F35C9A4502DB114800F072FC82
:10784000842352465B00F3585846995C4B461B0212
:1078500002331C190904091901234246019CA0475F
:107860002E681DE7064800F05DFCA0E7044800F024
:1078700059FC79E7024800F055FCD6E79301000176
:10788000B6030000F0B557464546DE464E46E0B525
:10789000040083B08846171E1ED082256D00206824
:1078A0004359002B0AD0A1899A898A4203D10AE060
:1078B0009A898A4207D05B68002BF9D15B4800F0B7
:1078C00031FC0024EBE79C420DD01C00E7E7002FC1
:1078D00010D12068FFF7C6F803B03CBC904699462B
:1078E000A246AB46F0BDFFF79DF82000FFF7DCFD98
:1078F000FE239946237F657FED184B465D1BBD42F5
:1079000000DD3D00002D02DD668B002E0AD1200037
:10791000FFF766FE237F657FED184B465D1BBD427A
:10792000F0DDEEE723689A461B689B461B689B6860
:107930000093FF23334001933FD0862352465B00E0
:10794000D35C360A9E4202DB384800F0EBFB84230E
:1079500052465B00D358227F995D019B09041B02AC
:10796000D318C91842462B005846009EB047237FC3
:107970005B19237743465B190093013B1B78FF2B70
:107980001FD0009B2268984682235B00D3587F1B40
:10799000002B9CD0A18902E05B68002B97D09A89CC
:1079A0008A42F9D1608B1A8A904203D09A685219A0
:1079B0009A60F1E7227FDA74F8E71C4800F0B2FB26
:1079C000BBE723689B461B6898461B689B681E00A4
:1079D000638B9A46FF2352461340019321D05346AE
:1079E0001B0A9A4686235A465B00D35C9A4502DB03
:1079F0000E4800F097FB84235A465B00D35852464A
:107A00009A5C637F1204591C6177FF21C91A019B9C
:107A100040461B02C9188918220001231C32B047B6
:107A2000AFE7024800F07EFBD9E7C046B60300008E
:107A3000F0B5C646002200B582B08274C2746A46B0
:107A400000230400961D88460382C38143613100F0
:107A50002000338001270025FFF79EFB002812D06D
:107A6000E1898D4203D04346002B31D10D00218A9C
:107A700020680022FEF75EFF310020000027FFF79C
:107A80008BFB0028ECD14346002B27D0002F2DD1B3
:107A9000822322685B00D358002B15D00125A089D2
:107AA000002100246D4202E05B68002B0CD09A8913
:107AB0008242F9D11982D98159619C74DC74996030
:107AC0005D835B68002BF2D102B004BC9046F0BD30
:107AD00000222068FEF72EFFE189C7E7E289A3892B
