:1020000000800020A9C90000A5C900006955000092
:1020100000000000000000000000000000000000C0
:10202000000000000000000000000000A5C9000042
:102030000000000000000000A5C90000A5C90000C4
:10204000A5C90000A5C90000A5C90000A5C90000D8
:1020500049060100A5C900009DEC0000B1F1000097
:10206000A5C90000E9D40000F9D4000009D500009A
:1020700019D5000029D5000039D50000A5C90000F8
:10208000A5C90000A5C90000D9E10000E5E10000F4
:10209000F1E10000A5C90000A5C90000A5C9000024
:1020A000A5C90000A5C90000A5C90000A5C9000078
:1020B0007CB0EE877CB0EE87FF00FF00FF00FF00E2
:1020C000FF00FF00FF00FF00FF00FF00FF00FF0018
:1020D000FF00FF00FF00FF00FF00FF00FF00FF0008
:1020E000FF00FF00FF00FF0010B5064C2378002B17
:1020F00007D1054B002B02D0044800E000BF0123AC
:10210000237010BD4003002000000000A8C901009A
:10211000084B10B5002B03D00749084800E000BF6A
:1021200007480368002B00D110BD064B002BFBD0E5
:102130009847F9E70000000044030020A8C9010007
:10214000A8C901000000000010B501F073F813F0F9
:1021500013F900F033FD10BD10B501F06BF813F06A
:102160003FFC00F02BFD10BD10B501F063F813F03B
:1021700085F900F023FD10BD10B501F05BF813F0F8
:10218000DDFF00F01BFD10BD10B501F053F813F09A
:10219000BDFB00F013FD10BD10B501F04BF813F0BE
:1021A0003DFB00F00BFD10BD10B501F043F812F03F
:1021B00005FB00F003FD10BD10B501F03BF813F076
:1021C0006DFA00F0FBFC10BD10B50C0002999142B5
:1021D00023DB002B0BD1042A19D0022A01D1C3071B
:1021E00011D50100200018F0F7F9002010BD2100E2
:1021F0008018A418002AF8DD013803780B7001312B
:10220000A142F9D1F1E7038800202380EEE783079C
:10221000E7D1036800202360E8E70021200018F0E0
:10222000F6F901204042E1E7083070470300002042
:10223000002B06D0002904DB5A68914201DA5B18B2
:10224000187A7047002806D0002904DB43689942B9
:1022500001DA40180272704770B5002B21DB0029AB
:102260001FDB4668B1421CDC5568761AED1AB54290
:102270000CDC002D15DB82420AD0083208304018F1
:10228000D1182A0018F0A8F9002070BD3500F0E739
:102290000832D31850182A00190018F0A6F90020A7
:1022A000F3E701204042F0E74068704710B5002A8C
:1022B0000DDB4468A2420ADC002B09DBA41A9C4215
:1022C00000DD1C0008308018220018F0A0F910BDB5
:1022D0002300F3E7436810B51C008B4200DD0C00BF
:1022E000002A08DB191B914200DD1100083000199B
:1022F00000F09EFA10BD1A00F4E7C04670B50E005B
:10230000002B20DB002A1DDB44689918A14219DC50
:102310008A4217DC002B15D0710013D059428E422F
:1023200014DDB34212DD08308518002E16DB9C1B2D
:10233000A9192200280018F058F9281932000021A4
:1023400018F065F970BD43689B1ADBE7002CF9DBD8
:1023500022000021083018F05AF9F3E774429A1964
:102360002900281918F041F922000021280018F04E
:102370004EF9E7E7F8B5040043680020590000F083
:1023800031FA6668002E0FDD0F272200A619074CD0
:10239000811D137A01321D113B40655DE35C0D70B8
:1023A0004B7002319642F4D1F8BDC04618AC010022
:1023B00070B50400160008001D1E2BDB002E28DB64
:1023C0006268AB19934224DC9E4222DC002D20D0AF
:1023D00043001ED0002822DB29000FF0E7FB002974
:1023E00020DB220008329219511855198A4210D068
:1023F0000B0004E003008A420FD0934209D0147806
:102400001E78581C167001321C708542F2D10B00E8
:10241000F3E770BD63689D1AD0E70100EDE72B027A
:10242000C018D9E74919DCE7012300B55B4283B046
:1024300000930023FFF710FF03B000BD10B50100AB
:10244000002000F0F5F910BD30B5040083B00D0098
:10245000102A0DD8544992008A589746180000F067
:10246000F9FF0090032D03DDA30700D096E0206064
:1024700003B030BD180000F05FFF002DF8DD2070C4
:10248000F6E7180000F058FF6B461880012DEFDDCD
:102490001B7863706B465B782370E9E7180000F0E7
:1024A0004BFF0090032DE3DD00216A46231D505CA5
:1024B000013B187001319C42F9D1D9E7180000F0B6
:1024C0003BFFC0B2002DD3DD2070D1E7180000F033
:1024D000B1FE00900191072DCADD08226946200057
:1024E00018F07AF8C4E7180000F0CCFE0090032D35
:1024F000BADCBDE7180000F0C5FE0090032DB7DD83
:1025000000216A46231D505C013B187001319C423A
:10251000F9D1ADE7180000F08DFE00900191072D74
:10252000A6DD23006A4608331178013B1970013299
:102530009C42F9D19CE7180000F08CFF0090032D1D
:1025400096DD00216A46231D505C013B1870013165
:102550009C42F9D18CE7180000F0EEFE6B46188023
:10256000012D00DC84E7E30716D50222694620002E
:1025700018F032F87CE7180000F0DEFE6B4680B2FF
:102580001880012DEFDC73E7180000F0D5FE0090F5
:10259000032D00DD68E76BE7208069E704226946C8
:1025A000200018F019F863E790AB010010B5002A7D
:1025B00007DB44680830A41A80180A002100FFF7DE
:1025C00043FF10BD10B584B0102A00D977E03D4B11
:1025D00092009B589F460123009102A90822FFF711
:1025E000F3FD0298039900F0E9FA04B010BD00234E
:1025F00002AC009101222100FFF7E6FD00202056E9
:1026000000F0AAFBF1E7002302AC009101222100B7
:10261000FFF7DAFD207800F09FFBE6E7002302AC2D
:10262000009102222100FFF7CFFD0023E05E00F0C1
:1026300093FBDAE7002302AC009102222100FFF7AE
:10264000C3FD208800F088FBCFE70023009104221F
:1026500002A9FFF7B9FD029800F07EFBC5E702ACC6
:1026600000910123C6E702AC00910123CEE702AC42
:1026700000910123D5E702AC00910123DDE7009131
:102680000123E4E700230091042202A9FFF79CFD47
:10269000029800F06DFBA8E700910123F4E7002306
:1026A0000091042202A9FFF78FFD029800F04EFB73
:1026B0009BE70091002390E700910123F1E70020C0
:1026C00093E7C046D4AB010010B5002A08DB43688D
:1026D00008309B1A80180A001900FFF773FF10BD1D
:1026E000002000F039FBFAE710B502F067FB10BDDF
:1026F00010B502F001FC10BD10B505F0BFFC10BD17
:1027000010B5C11702F0BEFA10BDC04610B502F0F8
:10271000CDFA10BD10B502F0D9FA10BD10B502F017
:102720004BFB10BD10B5002904D08B88881D190003
:1027300003F056FA10BDC04610B501F0ADFA10BD59
:1027400010B5012001F01CFD10BDC04600207047EF
:102750007047C04680880C3080087047032070475F
:1027600040680B3080087047054B1B68002B05D074
:102770005A688242F9D19A688A42F6D118007047A5
:102780005C030020F0B5C646154F00B53B68040059
:102790000D009046002B03D10DE01B68002B0AD0E2
:1027A0005A689442F9D19A689542F6D14246DA6065
:1027B00004BC9046F0BD102017F0DBFE060010228E
:1027C000002117F024FF3B683000336043460C3093
:1027D00001217460B560F36001F066FD3E60E7E7DB
:1027E0005C03002070B506000C1E18DB002C01D124
:1027F0000D4870BD2000093001F0CAFC051E01D053
:102800000A4B0360AC80002E04D0A81D22003100CA
:1028100017F0E2FE00232C19A3712800E9E717F056
:102820004CFF0400E2E7C04674AD010024AD010096
:1028300070B506000D1E12DD0800083001F0A8FC7E
:10284000041E01D0094B03602000656008302A0097
:10285000002E06D0310017F0BFFE200070BD0448E6
:10286000FCE7002117F0D3FE2000F7E7DCAC010005
:1028700068AD0100014B18607047C046B8000020E9
:102880000F4BF0B59C46050001241F682A0000206C
:10289000BE09FB0F73407B403E0979087340BF08B7
:1028A0007B404B40DB070B431F00230040003B40B5
:1028B00018435208ECD18542E8D363461F60F0BD4F
:1028C000B800002010B500210148FFF78BFF10BDB4
:1028D00088B00100002200B583B001AB1A8001214D
:1028E00018701800FFF77EFF03B000BD00B583B07D
:1028F000002804D0002902DB8388994205DB0021EF
:102900000748FFF76FFF03B000BD0022401883792E
:10291000012101A802800370FFF764FFF3E7C046BE
:1029200088B00100F8B505000C0000281DD0818892
:10293000002C24D02600002903D0A3882E00002BD1
:1029400001D13000F8BDC9180020FFF74BFF871DEB
:10295000AA88A91D0600380017F03EFEA888A288A4
:102960003818A11D17F038FEEBE7E921002C10D034
:102970000A4DA38889012E00002BE2D0E3E700294D
:1029800005D0E9239B019C46044C6144DCE7034EDF
:10299000D7E7024CC9012500D6E7C046C8AD010003
:1029A00010B5884208D00631063017F074FE0028B2
:1029B00004DB431E984110BD0020FCE7012040428B
:1029C000F9E7C04680887047F0B54746CE4680B5E7
:1029D000037883B006008846202B03D10136337874
:1029E000202BFBD02B3B5A425341F61833782D2B2A
:1029F00000D176E000214C4A00910192302B00D1A9
:102A000078E0002B00D18CE00027002400251EE098
:102A10000022464B2000290010F066FF04000D0044
:102A2000484611F04BFD22002B0010F019F804006D
:102A30000D00002F07D00098019900223B4B10F0A9
:102A40001FFB0090019101363378002B0FD030220C
:102A50005242914699444A46092AD9D9002F17D1A2
:102A60002E2B15D1013633780127002BEFD1220010
:102A7000009801992B0010F037FF04000D00434629
:102A80001E602000290003B00CBC90469946F0BDA2
:102A900020229343452B01D105E001363378202BCA
:102AA000FBD0002B3AD1009A019B2000290010F0A6
:102AB0001BFF337804000D00002BE0D00A224146B2
:102AC000701C17F00DFD1949020000200FF00CF9E1
:102AD00002000B002000290010F006FF04000D008A
:102AE000CFE700217378124A013600910192302B12
:102AF00000D086E7202172780A43782A00D083E745
:102B000010224146300017F0EBFC11F0D7FC009A80
:102B1000019B10F0E9FE04000D00B2E70024054D12
:102B2000AFE700240025A2E70000F03F00002440AA
:102B30000000F0BF0000F87F10B5002A12DD838886
:102B400000290ADB5B1A934205DC063040181900A5
:102B5000FFF748FE10BD1300F7E7C918CC43E41790
:102B60002140EFE700210248FFF73CFEF2E7C046B4
:102B700088B0010010B5002811D000290FD0002A1C
:102B80000DDB8B8884889B18A34208DC841D0631EA
:102B9000A01817F099FD002801D0001B10BD0120DE
:102BA0004042FBE710B5FFF7E5FF0130431E9841B7
:102BB00010BDC04643425841C0B2704770B50A00CC
:102BC00005000C1E14D10120002D10D02A00230076
:102BD0002800210011F01EFC002848D10C2001F033
:102BE000D7FA002801D0234B03604560846070BD94
:102BF0004B0021495B0D59181D292AD8142915DCD1
:102C00000028E3D11D488446200063449840031EF9
:102C1000DCD18020E40200061F332043591AC8404B
:102C2000002A1FDB012340001843E0E714488446D4
:102C3000280063449840031EC8D18020E4020006A7
:102C40001F335B1A2043D8403423591ACD40284300
:102C5000E6E71E29BAD10028B8D10A4B9C42B5D16B
:102C60000948C4E70123404240001843BFE70E2053
:102C7000BDE7C04600AD010001FCFFFF0DFCFFFFFA
:102C8000EDFBFFFF0000D0C101000080F0B50700A0
:102C900083B0841D200001A9FFF796FEBB880500C4
:102CA000E418019B0E00A34207D00025194E28000E
:102CB0003100FFF783FF03B0F0BD002200230EF0C8
:102CC0008BFF0028F3D10122740064085242124B9A
:102CD0002800210011F09EFB0028E6D101220E4BB6
:102CE0005242280021000EF091FF0028DDD1802300
:102CF00000225B032800210011F08CFB0028D4D1B6
:102D0000802300225B03280021000EF06BFF0028C7
:102D1000CDD0CAE70000F87FFFFFEF7F10B511F0BC
:102D2000CDFBFFF74BFF10BD00B500280CD00029EC
:102D30000ADB82880E23914204DA4018837901204D
:102D40005B000343180000BD0E23FBE710B511F034
:102D50002FFCFFF733FF10BD430010B55A1090420F
:102D600002D0FFF7DBFF10BD01201843FBE7C04690
:102D7000064B10B5984203D801234000184310BDFC
:102D800011F0DEFBFFF71AFFF9E7C046FFFFFF3F38
:102D90004223002800D1383B18007047F8B5574649
:102DA0004E464546DE460023E0B5170000220600E9
:102DB0000D000EF017FF002800D072E00022002363
:102DC000300029000EF008FF002809D030233B70A6
:102DD00000237B703CBC90469946A246AB46F8BDAA
:102DE0003000290012F072FF11F034FB454A83468F
:102DF000454B300029000EF013FF002859D15A46E8
:102E0000002042490EF070FF0B0002002900300044
:102E100010F036F9012306000D009846002399466C
:102E20002E339A462900300011F014FB0300303392
:102E30003B70040011F042FB02000B00300029003F
:102E400010F0D2FF314B002210F04EFD01235B4207
:102E50009C46E044434606000D00002B1DD0013780
:102E60004B461C4316D001239C46E1444B46102B95
:102E7000D8DD4346002BD5DC013F3B78302BFBD01F
:102E80002E3B5A425341FF1A5B46012B2FD10023A0
:102E90007B709FE700239946C4E753467B70023757
:102EA000DEE72D233B7080231B069C4601376544DB
:102EB00084E7174A174B300029000EF093FE0028D4
:102EC0009DD05B46002B19DD5A4600200F490EF0BD
:102ED0000BFF0B0002002900300010F0D1F8012395
:102EE0005B449846012306000D009B4696E7652348
:102EF000B91C7B70584605F0B3F96BE7012398467F
:102F00009B468BE78DEDB5A0F7C6B03E0000244090
:102F100050EFE2D6E41A4B44012070B54042FFF76F
:102F2000AFFC04000D48FFF7ABFC0600200011F0D9
:102F300007FB00220A4B10F0D7FC040030000D0004
:102F400011F0FEFA074A084B10F09AF802000B0045
:102F5000200029000FF084FD70BDC046FFFFFF0078
:102F60000000F03D0000E0DFFFFF6F4310B5FFF70A
:102F7000D3FFFFF723FE10BD4843704710B50EF096
:102F80002FFD10BD10B50C2001F002F9041E01D078
:102F900001F03AFC200010BD0089704710B50430E4
:102FA00001F03CFB10BDC04610B501F0CDFB10BDDB
:102FB00010B501F0D1FB10BD10B501F0DDFB10BD67
:102FC00010B501F0EFFB10BD10B501F0DFFB10BD37
:102FD00010B501F0E1FB10BD10B501F0E9FB10BD2B
:102FE00010B501F001FC10BD024B1B68588CC000ED
:102FF0007047C0467C0300200D4B30B51B685D6AEE
:103000002B68984212D0002B0ED02B0000240833DE
:1030100002E00833002A07D01A6802348242F8D14D
:103020000134A400285930BD0800FCE70424F9E766
:103030007C030020406870474160704710B508204D
:1030400001F0A6F8041E01D001F0E8FB200010BD3D
:1030500070B505000C00160000290EDB838899422C
:103060000BDAA4002C19E368002B03D00B210548D0
:1030700001F01CFC2800E66070BD0A21014801F047
:1030800015FCEEE78603000010B505F003F810BD4F
:10309000002803D08388002B00D070470020FCE775
:1030A000431E98417047C04610B5142001F070F8D7
:1030B000041E01D001F0BAFB200010BD10B50400C1
:1030C00001F0C0FB002805DB0C340100200001F0FA
:1030D00021FA10BD0020FCE7F8B54746CE46214B4B
:1030E00080B51B680600DA6A1368171D52685D1EFA
:1030F000904217D31C4A944663449B00DB59984284
:1031000010D8002202E0421C954209D35019400811
:103110008300DB599E421CD0F5D8451E9542F5D25E
:10312000002016E000239846B31D994609E00630BA
:10313000494617F0B0FA00280FDA631C9846A845F4
:10314000EED843465C196408A300D8598642EED1F4
:1031500020000CBC90469946F8BD0028F8D0651EAA
:10316000EDE7C0467C030020FFFFFF3F044B10B596
:103170001B680131DB6A8900C958FFF79FFF10BD4A
:103180007C03002070B504000D00160001F05AFB0E
:10319000002806DB0C3401003200200001F03AFA6E
:1031A00070BD201D290001F047FA200031000C30CD
:1031B00001F042FAF4E7C046044B10B51B68013138
:1031C000DB6A8900C958FFF7DDFF10BD7C030020D2
:1031D000014B18687047C046780300207047C0460E
:1031E00010B50300820709D100281CD00122036812
:1031F0009343DA78F92A14D0042010BD0020002B64
:10320000FBD00220DA07F8D40E2BF6D0422B0CD0DC
:103210000A2B0AD0062BEFD0054804F03BFF042010
:10322000EBE79878E9E70020E7E70120E5E7C0460B
:103230002103000070B504000E281BD0002819D00F
:10324000830711D12000FFF7CBFF0500022814D01F
:10325000032D0FD12000FFF719FD04000E2809D01F
:10326000002C07D02C42EDD0200000F00BF811F01C
:1032700025F970BD00200249FBE76068A168F8E706
:103280000000F87F70B5C30747D483073FD40028F8
:1032900041D0FFF7CFFF01224C0064080E005242DC
:1032A000234B2100050011F0B5F8002833D101228D
:1032B0001F4B5242280021000EF0A8FC00282AD102
:1032C000802300225B032800210011F0A3F80028CE
:1032D00021D1802300225B03280021000EF082FC14
:1032E000002818D12800310012F04AF90022114BB1
:1032F00012F0F8FB0022002304000D000EF072FC17
:1033000000280CD1200029000EF04CFD02E08011B5
:10331000431E984170BD0020FCE74010FAE72000F2
:1033200029000022034B0FF09BFB04000D00E9E78E
:10333000FFFFEF7F0000F04110B5FFF7A3FF10BDC6
:1033400070B50D00FFF79EFF04002800FFF79AFFFD
:103350008440630020005A10944202D0FFF7DEFC44
:1033600070BD01201843FBE770B50D00FFF78AFF21
:1033700004002800FFF786FF0441630020005A1074
:10338000944202D0FFF7CAFC70BD01201843FBE74E
:1033900070B50D00FFF776FF04002800FFF772FFFD
:1033A000604043005A10904202D0FFF7B7FC70BD56
:1033B00001201843FBE7C04670B50D00FFF762FF20
:1033C00004002800FFF75EFF204343005A1090429C
:1033D00002D0FFF7A3FC70BD01201843FBE7C046F5
:1033E00010B5FFF74FFFC04343005A10904202D080
:1033F000FFF794FC10BD01201843FBE770B50D00EA
:10340000FFF740FF04002800FFF73CFF2040430087
:103410005A10904202D0FFF781FC70BD0120184382
:10342000FBE7C04670B50D00FFF72CFF0400280035
:10343000FFF728FFC440064B20009C4203D801231D
:103440006000184370BD11F07BF8FFF7B7FBF9E798
:10345000FFFFFF3F10B5FFF7EDFE11F0FBF810BDC9
:1034600070B50E00FFF7E6FE040030000D00FFF718
:10347000E1FE02000B00200029000FF0F1FAFFF737
:103480009DFB70BD70B50E00FFF7D4FE0400300048
:103490000D00FFF7CFFE02000B002000290010F006
:1034A000A3FCFFF78BFB70BD012213000B40D0B5CE
:1034B0000C00184203D0C3130133012B0FD9FFF7BF
:1034C000B9FE060020000F00FFF7B4FE02000B005B
:1034D0003000390010F008FAFFF770FBD0BDCB13B5
:1034E0000133012BEBD84C104010604343005910BE
:1034F000884202D0FFF712FCF0E713431800EDE713
:1035000070B50E00FFF796FE040030000D00FFF7C7
:1035100091FE02000B00200029000FF0B1FDFFF723
:103520004DFB70BDF8B501250C00284201D02942A1
:103530000FD1FFF77FFE060020000F00FFF77AFE95
:1035400002000B003000390012F0CCFAFFF736FB16
:10355000F8BD4B10EDD0FFF795FE06002000FFF7F9
:1035600091FE010030000EF021FB48004210914214
:1035700001D12843ECE70800FFF7D0FBE8E7C0469D
:1035800070B50E00FFF756FE040030000D00FFF787
:1035900051FE02000B002000290012F023FCFFF76F
:1035A0000DFB70BD70B50E00FFF744FE0400300047
:1035B0000D00FFF73FFE02000B002000290012F073
:1035C00029F9FFF7FBFA70BD0123F0B50E0083B0B7
:1035D00018420BD0194209D040104C10844226DB0F
:1035E00022D19E433000184303B0F0BDFFF722FE06
:1035F000040030000D00FFF71DFE06000F00020062
:103600000B00200029000EF001FB002820D1320021
:103610003B00200029000EF0DFFA002812D0200025
:103620002900FFF7CBFADFE7230004001800001B96
:10363000FFF726F920184600731098421DD0FFF7B7
:103640006DFBD1E732003B0026002F0014001D0067
:10365000FFF762FC3200009001913B00200029003E
:1036600010F0C2FB009A019B10F03EF932003B00C3
:103670000FF0F6F9FFF7A2FAB6E701203043B3E7FF
:1036800010B5FFF7D7FD12F099FAFFF797FA10BDC2
:1036900010B5FFF7CFFD12F019FBFFF78FFA10BD41
:1036A00010B5FFF7C7FD11F0BBFEFFF787FA10BD9D
:1036B00010B5FFF7BFFD11F06BFEFFF77FFA10BDED
:1036C00010B5FFF7B7FD11F049FBFFF777FA10BD12
:1036D00010B5FFF7AFFD11F00FF9FFF76FFA10BD4E
:1036E00010B5FFF7A7FD12F035F8FFF767FA10BD28
:1036F00010B5FFF79FFD11F071FFFFF75FFA10BDE6
:1037000010B5FFF797FD12F089FDFFF757FA10BDCE
:1037100010B5FFF78FFD11F06BFBFFF74FFA10BDEF
:1037200010B5FFF787FD11F083FAFFF747FA10BDD8
:1037300010B5FFF77FFD11F023FFFFF73FFA10BD33
:1037400010B5FFF777FD0022034B0FF089F911F058
:103750004FFBFFF733FA10BD0000E03FF8B504005F
:103760000D000E2807D00E2905D0884229D00B0065
:103770000340DB0701D50020F8BDFFF731FD06004F
:103780002800FFF72DFD8642F5D123002B439B0730
:10379000F1D1032E17D0022EEDD12000FFF74AFD04
:1037A000060028000F00FFF745FD02000B00300067
:1037B000390001240EF010FA002800D10024E0B2F4
:1037C000DAE70120D8E7A91DA01D16F064FF002844
:1037D000D1DB43425841C0B2CEE7C04610B5FFF737
:1037E000BDFF4223002800D1383B180010BDC04661
:1037F00010B5FFF7B3FF4223002800D0383B180074
:1038000010BDC046F8B504000D000E2815D00E29D5
:1038100013D0062846D0422849D00A2831D00300C8
:10382000062900D183E0422D09D00A2D43D09D42C4
:103830003FD02B002340DB0704D50020F8BD032236
:10384000934236D02000FFF7CBFC06002800FFF79C
:10385000C7FC0300032E30D0032816D0012E3AD027
:1038600001282FD09E42E8D122002A439207E4D1BA
:10387000032B4FD0022B33D02C1B60426041C0B2CF
:10388000DCE70123062DDDD0CDE7022E28D0012E66
:10389000D3D1062CD1D00226422C39D00A2CDFD12C
:1038A000093CDDE701200629C8D00023BBE703233C
:1038B000E8E70120C2E70122C2E7022810D003286E
:1038C000CED1D1E70223062D1ED0422D1ED00A2DC7
:1038D000C8D1093DC6E7062CDDD102260024BFE78A
:1038E0002000FFF7A7FC060028000F00FFF7A2FC4E
:1038F00002000B003000390001240EF06DF90028A1
:1039000000D10024E0B299E70025ABE70325A9E741
:103910000324A5E7A542CCD0A91DA01D16F0BBFE2F
:10392000002800DA89E743425841C0B286E7002206
:1039300086E7C04610B5FFF765FF10BD10B5FFF76D
:1039400061FF4223002800D1383B180010BDC0465B
:1039500010B5FFF757FF4223002800D0383B18006E
:1039600010BDC046F8B5040083071ED100282ED034
:10397000FFF736FC032826D00125022821D120009C
:10398000FFF758FC02000B0006000F0010F042FD8C
:1039900000281CD100230022300039000EF01CF951
:1039A000434243415B421D400BE00A280FD0002CEC
:1039B0000DD00E2C0BD0062C09D0013C25006C1E1E
:1039C000A5412800F8BDA3880125002BF9D10025C9
:1039D000F7E7C04610B5422806D00A2802D0FFF704
:1039E000C1FF10BD0020FCE70120FAE7F8B5040094
:1039F0000E000E2848D00E2946D0FFF7F1FB050037
:103A00003000FFF7EDFB032D2FD0B4423AD0200059
:103A1000FFF710FC040030000D00FFF70BFC220044
:103A200006000F002B002000290010F0F3FC0028F6
:103A30002AD132003B003000390010F0EBFC0028A6
:103A400022D132003B00200029000EF0CBF80028E4
:103A50001DD13B003200200029000EF0D7F8431E94
:103A60009841012340421840F8BD0328CDD1B4420B
:103A700008D0B11DA01D16F00EFE002807DB431E66
:103A80009841F1E70020EFE702204042ECE70120F7
:103A90004042E9E70B00034010B5DB0706D50123E0
:103AA000884201DAD8B210BD0023FBE7FFF79EFF82
:103AB000831C01D0C00FF6E70020F4E70B000340A1
:103AC00010B5DB0703D5884207DD0A2010BDFFF7DC
:103AD0008DFF831CF9D00028F7DC4220F6E7C046B2
:103AE0000B00034010B5DB0703D5884207DB0A2033
:103AF00010BDFFF77BFF831CF9D00028F7DA4220C6
:103B0000F6E7C0460B00034010B5DB0703D588423B
:103B100005DB422010BDFFF769FF0028F9DA0A2013
:103B2000F8E7C0460B00034010B5DB0703D5884219
:103B300005DD422010BDFFF759FF0028F9DC0A20FF
:103B4000F8E7C04670B590B00400FFF749FB0328C2
:103B500042D002280ED0052832D0002C53D00A2C97
:103B600053D00E2C3AD0422C51D0062C51D02B4899
:103B700010B070BDE30725D40E2C2FD02000FFF726
:103B800059FB01224C0064080E005242244B2100D4
:103B9000050010F03FFC002822D10122204B5242A8
:103BA000280021000EF028F8002819D10022002357
:103BB000280031000EF016F800282CD11948D7E75C
:103BC0001948D5E76946601004F04AFB01216846B0
:103BD0004942FEF707FECBE72000C9E71348C7E7D5
:103BE0002A0033002800310010F014FC0028F5D121
:103BF000280031006A46FFF7D1F8012168464942A2
:103C0000FEF7F0FDB4E70A48B2E70A48B0E70A4811
:103C1000AEE70A48ACE70A48AAE7C046ECAD0100A7
:103C2000FFFFEF7F9CAD0100FCAD0100ACAD0100DA
:103C300058AD0100E0AD0100D4AD0100C8AD0100F8
:103C4000B8AD010010B5FFF7CBFA05280FD80A4B25
:103C500080001B589F46094810BD0948FCE70948E9
:103C6000FAE70948F8E70948F6E70948F4E7094898
:103C700004F010FA0020EFE72CAC01008CAD01003D
:103C800048AD010010AE010030AE010020AE0100D1
:103C90007CAD01002203000030B583B00400FFF7C3
:103CA0009FFA04280ED02000FFF74CFF05002000EB
:103CB000FFF7C8FFAB1D811D2200104804F0E6FC91
:103CC00003B030BDA3070CD1002C0AD02268012319
:103CD000110099434B690A48834207D02000984756
:103CE000EEE72100074804F0D1FCE9E70B890988D9
:103CF00005480091002104F0C9FCE1E7C0AC0100D7
:103D0000993C0000D0AC010098AC010010B5040053
:103D10000100114804F0BAFCA30707D1002C07D01A
:103D2000012321689943CB78F92B0BD0062C10D0B6
:103D30002000FFF755FAF5239B009C46604404F0F1
:103D4000A9F910BD0B898A78044804F09FFC062C61
:103D5000EED10348F3E7C04644AC010060AC01007B
:103D6000DD03000010B50100034804F08FFCE420DF
:103D7000800004F08FF910BD80AC010070B50468BC
:103D80000500002C0ED0E3070CD4A3070FD5A40820
:103D9000094A631E934203D9D420800004F07AF9C3
:103DA000200070BD054804F075F9A307EFD4E3695E
:103DB000280098470400EBE7FEFF0F0051030000C6
:103DC00070B5124EB4883568002C0ED02B6898421E
:103DD00010D02B1D002205E01D000433191F0968B7
:103DE000814208D00132A242F6D3D220800004F0F2
:103DF00051F970BD0022013C3000944203D000F024
:103E000021FC2860F5E700F01DFCF2E764030020C8
:103E1000802010B5C00105F04BF9064B4360064BFE
:103E20001A688260021D1A60044B1A6818600260EA
:103E300010BDC046FE3F00006C0300206003002060
:103E4000F0B5DE4657464E464546E0B5534B85B085
:103E50001B6803900193002B00D186E0002301260C
:103E60009A46022702930093019B80259C461A1DC7
:103E700090464B4AED0165449446029B634402938D
:103E800043461B681E4264D145456BD9444609E050
:103E90002000FFF773FF80002418A5420ED9236885
:103EA0001E423ED11F42F3D1200000F015FB20003E
:103EB000FFF764FF80002418A542F0D84346E31AB8
:103EC0009B1099469B009B461A00FF21404616F026
:103ED0009EFB5B4642463B4313604B46CA44012B64
:103EE00006DD4346A046009A00935A604545C7D870
:103EF000019B1B680193002BB6D1039B002B3DD186
:103F000053469C0054446400264B009A1A60029B5E
:103F1000A34230D205B03CBC90469946A246AB467F
:103F2000F0BD4346E31A9B1099469B009B461A003E
:103F3000FF21404616F06BFB5B4642463B43136055
:103F40004B46CA44012BCCDCA04643461B681E42AC
:103F50009AD04246B34340461360FFF70FFF8000FC
:103F60008044C3E743461F60C0E7039B002B0FD18B
:103F70000C4B039A1A60FFF74BFFCBE753469C00AC
:103F800054446400029A5146074804F07FFBBBE7A3
:103F90000023002402939A460093F3E76003002075
:103FA000FF0F00006C03002040AE010001220368F7
:103FB000934318888010704710B500280BD0C36851
:103FC000002B09D01A6842605A6882609A68C26001
:103FD000180016F0C6FA10BD16F0C3FA002000F063
:103FE000F7FEF8E7154B70B55B680500DB0512D1ED
:103FF00000F0E8FE041E15D00C2016F0BAFA636833
:104000000360A3684360E3688360E0600023A56009
:104010002000636070BD0A4804F03CF800F0D2FE56
:10402000041EE9D1102016F0A4FA064B04001B6808
:1040300003600023C36000F0CBFEE7E700ED00E083
:10404000920300007803002010B5830703D10028F5
:1040500001D0830E00D110BD012203681342FAD1B2
:10406000D978F929F7D1134303600100014800F022
:10407000E3FAF0E770030020F8B5CE4647460E009D
:1040800080B50400002500291CD0012398460F4B61
:10409000032799462168394210D100290ED08B0E92
:1040A0000CD042460B68134208D1DA78F92A05D1C0
:1040B000424613430B60484600F0BEFA0135043413
:1040C000AE42E7D10CBC90469946F8BD7003002083
:1040D00070B5830703D1002801D0830E00D170BDD5
:1040E000012203681A42FAD1D978F929F7D19969DE
:1040F00013430360002900D08847084C012507E0DE
:10410000200000F09FFA0368AB439B69002B03D1AA
:10411000A388002BF4D1E2E79847F9E77003002069
:10412000F8B5144B00249F881D680126002F0AD083
:104130002868304201D0B04300680134FFF7C8FF5F
:104140000435A742F4D800F049FE0B4B00241B684D
:104150005D8D00F0D1FB094AAB00461B1568ED18D8
:10416000002E05D001CD0134FFF7B2FFA642F9D1F0
:10417000F8BDC046640300207C03002078030020C3
:1041800010B50400FFF7CCFF2000FFF759FE10BD6B
:10419000F0B54646D6464F463D4BC0B5C61CB61098
:1041A0009E4266D800F00EFE002802D04368002B25
:1041B00069D000239946374B9A46032398465346C5
:1041C0001D680027002D0ED13AE0334803F062FF4E
:1041D0002C68A3070FD5A408A41B6B6812D52F0069
:1041E000002B2DD01D0043461D42EED1AB0EECD06E
:1041F0002C68A307EFD42948A40803F04BFFA41BA5
:104200006B68ECD4002C09D00221B600A200AE19D4
:104210000A433260012C01D073603300002F2FD08D
:104220007B6000222A60002B04D05B68002B01D049
:104230001B0D13D028001CBC90469946A246F0BD29
:104240004B46002B0FD04B46012B16D0D3208000BD
:1042500003F020FF01239C46E144B0E7D420800016
:1042600003F018FFE6E7FFF75BFF0020FFF7E8FD2C
:10427000F0E70B4803F00EFF94E7FFF7C9FDE9E70D
:1042800052461360CDE7074803F004FF91E7C046AC
:10429000FF0F00006C030020510300004B030000DF
:1042A0004D0300004E03000070B5002909D001291C
:1042B00008DD4C1E051D0121FFF7F6FF2800013C1B
:1042C000F8D270BD01210143014800F0B5F9F8E7CB
:1042D0006403002010B5830703D1002801D0830EAA
:1042E00000D110BD0100024800F0A6F9F9E7C04670
:1042F0006403002010B5830703D1002801D0830E8A
:1043000000D110BDFFF75CFDFBE7C04610B5018989
:104310004068FFF7B1FE10BD10B581880C30FFF783
:10432000ABFE10BD10B54068FFF78EFE10BDC04655
:1043300010B5040001894068FFF79EFE218AE068FD
:10434000FFF79AFE10BDC046012208C810B593437E
:10435000198804398908FFF78FFE10BD03207047C4
:10436000808880000F3080087047C0460220704768
:10437000052070470023044A13609380D380034ACA
:1043800013609380D3807047640300207003002083
:1043900010B500F07BFC10BD10B5002801DB00F06B
:1043A0006DFC10BD7047C04600B5074B82681B68A6
:1043B00083B0D31A8288010000920448002204F0DE
:1043C00065F903B000BDC0467C03002024AF0100A6
:1043D00010B5010043680022014804F057F910BDF0
:1043E00050AE010010B5010003890022014804F01D
:1043F0004DF910BDD0AE010070B500250400458117
:104400000581406804F07EFE656070BD70B50025D2
:10441000040045810581406804F074FE6560658292
:104420002582E06804F06EFEE56070BD7047C0460E
:104430007047C046012370B50A6805009A43138986
:104440000E00042B07D010480122104904F01EF979
:104450000E4803F01FFE3000002D00D170BDE81C97
:104460008000FFF795FE041E01D0094B0360200079
:10447000B3682A04A580A360920B0C30002116F0CB
:10448000C6F82000EAE7C04614AF0100850300002B
:10449000ACAE01000E4B026970B505009A4209D01E
:1044A000E2210C480322890004F0F0F8E2208000A9
:1044B00003F0F0FD2888FFF76BFE041E00D00560B6
:1044C0002A88201D043A002116F0A1F8200070BDB2
:1044D0002D44000014AF0100012310B502689A4377
:1044E0001369984710BDC046012310B502689A436E
:1044F0001369984710BDC046012310B5026801003A
:104500009A4313880248002204F0C0F810BDC04648
:104510008CAE010083888B4203D903688900C85898
:1045200070470020FCE7C04610B50423002801D1E5
:10453000180010BD3F2810DD0A4B984206DD0130FF
:10454000094BFF3098420BD9084BF1E7830018184C
:1045500003210DF045FA83B2EAE7400083B2E7E7B2
:1045600083B2E5E7FF010000FEFF0000FFFF00004F
:10457000F8B5CE46474680B5C48805000E008C428B
:1045800003DB0CBC90469946F8BD880004F090FD12
:104590002B6880469946002C0ED100273800321B2C
:1045A00092000021404416F032F8484604F0AAFD7B
:1045B0004346EE802B60E4E7A7003A00190016F0AE
:1045C0000BF8EBE770B50500C0880C00FFF7ACFFF7
:1045D000844200DA040028002100FFF7C9FF70BD03
:1045E000C38870B505000C0016008B4207D8084B35
:1045F000994200D970BD013189B2FFF7E3FF2A6803
:10460000A3009E50AB889C42F4D30134AC80F1E708
:10461000FEFF000010B5FFF7E3FF10BDC38870B5C3
:1046200004000D008B4202D28188994201DAA580F4
:1046300070BDFFF7C7FFFAE710B50A008188FFF7E2
:10464000CFFF10BD8388002B09D0013B02689BB2CD
:1046500083809B00D318002218681A6070470020DE
:10466000FCE7C046F8B5828805008A421AD903687B
:104670008E0098194F1C0468BA4207D80021013AED
:1046800092B2AA809200D1502000F8BD521A064979
:104690008C46311D62449200591815F0A6FFAA8875
:1046A0002B68EBE70024EFE7FFFFFF3FF8B51700AB
:1046B000828804000D008A4218D9511CC38889B22F
:1046C00099420FDA6B1C9B0020681E1F521B811938
:1046D0009200C01815F089FF23689F51A388013309
:1046E000A380F8BDFFF76EFFA288EBE73A00FFF763
:1046F00077FFF6E770B50500C3888288016809482E
:1047000003F0C4FFEB88002B0BD00024064E2A6870
:10471000A3009958300003F0B9FFEB880134A3429D
:10472000F5D870BDE8AE01000CAF010010B5040073
:10473000038901000022034803F0A8FF201DFFF7B2
:10474000D9FF10BD6CAE010010B50A00043081889D
:10475000FFF746FF10BDC0460389002B09D0013B7F
:1047600042689BB203819B00D318002218681A602C
:1047700070470020FCE7C0460389994203D2436892
:104780008900C85870470020FCE7C04610B50430C7
:10479000FFF768FF10BDC04610B50430FFF786FF75
:1047A00010BDC04610B50430FFF71AFF10BDC0465B
:1047B000F8B5038906000F00140095009A420ED840
:1047C00000209C4201D2736858593900FFF71AF84B
:1047D000002807D1338901340435A342F0D20120E7
:1047E0004042F8BD2000FCE710B500220400FFF7AE
:1047F000DFFF002806DB043401002000FFF732FF52
:10480000012010BD0020FCE7034B03600023436040
:10481000038143817047C0468CAF0100024B0360A7
:10482000002343607047C04668AF0100044B03603B
:104830000023436003814381C36003824382704746
:1048400044AF0100F0B5C646068900B54568002EA4
:1048500025D02B68994225D02B1D002004E004337D
:104860001A1F12688A4217D00130B042F7D38B1D4D
:104870008F880024984603E001340435B4420ED2F8
:1048800028688388BB42F7D106303A00414615F0CC
:1048900094FE0028F0D1200004BC9046F0BD012019
:1048A0004042F9E70020F7E77047C04610B5040022
:1048B0000A000100034803F0E9FE200003F0EAFBD0
:1048C00010BDC04614AF010070B58400200015F083
:1048D00069FE05002200002115F099FE280070BD38
:1048E000014B1B68186970477C030020014B1B6853
:1048F000986970477C030020014B1B68188C704737
:104900007C030020134B026870B506009A4200D069
:10491000FEE74368104D188C2B60FFF7D5FF0F4B57
:104920002C681860226803600D4B9A4200D0FEE7A5
:10493000B36822699A42FAD100F0CEF920002B68C0
:1049400000221C6B002100234030A04700F092F9A8
:1049500070BDC046104200007C0300207803002098
:10496000708E3B9210B50248FFF7CCFF10BDC046D9
:1049700040A701000023820707D1002805D00121AC
:1049800002688A43D178F92901D018007047138949
:10499000063B58424341DBB2F7E7C04670B505001D
:1049A0000C20FFF7F5FB041E05D0154B0360002318
:1049B000436003814381AB0708D1002D06D001235A
:1049C0002A689A431300D278F92A01D0200070BDDA
:1049D0000C4A9342FAD12E89002EF7D063899E4269
:1049E00002D92189994206DA2681B2006968606895
:1049F00015F0F2FDEAE7201DFFF7E4FDF4E7C046FD
:104A00008CAF010044AF0100F0B5C646FA2300B5F3
:104A10001B01C51882B0040028000E0000F08AFEB9
:104A2000002803D002B004BC9046F0BDF023334010
:104A3000102B19D00227202B03D00C4803F02AFB9F
:104A40000027200000F06CFE8046182015F091FD34
:104A50000F2304001E40AAB2019700960E3B414668
:104A600005F0ECFB2000DDE70127EAE72303000067
:104A700070B50D0001214942FEF7BEFA0400431C47
:104A800004D029002000FFF7BFFF70BD014803F0EC
:104A900001FBF6E78B030000F8B505000F001600D8
:104AA0001C0000F047FE002800D0F8BD21003800AF
:104AB000FFF7AAFF210007003000FFF7A5FF06005F
:104AC000102015F056FD0400ABB2B288B98806F08C
:104AD000FDFD0021380005F0DDFB0021300005F070
:104AE000D9FB2000012106F085FD2000DDE7C0464E
:104AF000012170B5494204000420FEF77DFA01212E
:104B0000050049420520FEF777FA20210600CA2059
:104B1000FEF772FA002C0AD0012C12D0022C0BD115
:104B20000300320029000320FFF7B6FF70BD01002B
:104B30002800FFF769FFF9E7044803F0ABFA00200B
:104B4000F4E701003000FFF75FFFEFE78D0300009F
:104B500010B52021007CFFF757FF10BD10B51023C2
:104B6000808800F0C9F910BD036810B55B699847EB
:104B7000431E9841C0B210BD10B504F0ABFB431EFC
:104B80009841C0B210BDC046808870470048704749
:104B900016FCFFFF10B5044B00221B6800211C6BA4
:104BA0000023A04710BDC0467C03002070B505005F
:104BB00084B02D0C00900191029284B210226946BB
:104BC0001348039315F008FD29002000FDF7CCFDE4
:104BD00006002800FEF7C0F80500002E07D00D4B98
:104BE000F0681B6800221E6B29000023B0470021DB
:104BF0002000FDF7B9FD002807D0064BC0681B68F0
:104C000000221C6B29000023A04704B070BDC046E1
:104C1000300300207C03002010B5FFF76BFB04F08D
:104C20003FF910BD70B50600054D2B6800221C6BC6
:104C3000002100233000A047142004F0DFF8F4E73F
:104C40007C03002070B505000400084B3C35036070
:104C5000074BC363280007F095FD280007F0C4FD4B
:104C6000200005F0F9F9200070BDC046E0C2010047
:104C7000B0B8010010B504F013F910BD10B504F080
:104C8000BDF810BD10B503F0F5F910BD10B5041E48
:104C900006D0FFF71FFB034A2100034803F0B2FFD1
:104CA00010BDC046D18E0000254C000010B5041E7A
:104CB00006D0FFF70FFB034A2100034803F0A2FFD1
:104CC00010BDC046194C0000954B000010B589B2CC
:104CD00080B204F0B5F810BDF0B583B003F03AFA35
:104CE000284B1B681F8D002F2CD00025264E05E079
:104CF000B44213D0B44241D825602500042004F00A
:104D0000D7F90190019B04005B07F1D504F0FAF993
:104D1000082004F0CDF90400B442EBD1200004F0E7
:104D2000F1F9380004F0C4F9A04209D0174803F0A3
:104D3000B1F9002D06D02C68280004F0E3F9250015
:104D4000002DF8D1124803F023FE124C124E651CC0
:104D5000FF3502E00434AC420AD020680028F9D0C4
:104D600003681B68B342F5D004349847AC42F4D1D1
:104D700000F014FF00F0EEFD03B0F0BD074803F0B3
:104D800089F9B9E77C030020001000202A03000005
:104D9000800300206C0500208D4B00002B030000D9
:104DA000044B10B51C68FEF71FF9FF23FF342018D1
:104DB000984310BD7C0300200020704710B505F01B
:104DC0004DF910BD014B1B68186A7047700A00202E
:104DD000014B1B6818627047700A0020F0B5DE4670
:104DE00057464E464546E0B5002083B003F078FCB8
:104DF000294B010000908000994201D901204042D6
:104E000015F0D0FB0400019003F06AFC00239B46E0
:104E1000009BA246002B32DD204B994653461F686B
:104E20003B6A1E1D002B21D04B461B6834689F42F5
:104E30002FD03868BD6803F047F94B461B682D1A20
:104E4000641975689F4207D0BB683868984603F0BC
:104E50003BF94346181A2D18A54204D901CCFFF797
:104E600037F9A542FAD8B668002EDDD101239C4659
:104E70000333E3449C46009BE2445B45CED101985A
:104E800015F073FB03B03CBC90469946A246AB4676
:104E9000F0BD7568E0E7C046FEFFFF1F700A002006
:104EA00070B50D4C20000BF01FF80C4D0C492A007A
:104EB000200015F070FB0B4807F084FA0A4C200024
:104EC00006F092F92A000949200015F064FB084A0F
:104ED000084B1A6070BDC046C0020020B40000201C
:104EE000454C000030030020800300207DB200000C
:104EF00024B20100A4030020F0B5C64600B582B07C
:104F000004000D0016001F00FDF72EFC002808D03D
:104F1000320029002000FDF735FC02B004BC9046A9
:104F2000F0BDBFB20F2C16D0282015F022FB804612
:104F3000A1B2AAB20097094B04F02CF941460848E7
:104F400005F042FF0028E3D0404604F03DF940461A
:104F500015F007FBDCE7C02FE6D0D9E7AD4B00002A
:104F60008003002000B585B08AB2012381B2684673
:104F700007F006FA05B000BD012110B5494202480C
:104F8000FDF730FC10BDC046B0AF010010B506F013
:104F9000EBF810BD10B5811D014803F077FB10BD83
:104FA000B8AF010010B50A00811D024803F06EFB86
:104FB00010BDC046C0AF01000020704701207047FF
:104FC0000048704710B0010000487047D8AF01009A
:104FD00010B5537884B00C00062B0BD1D378212B5D
:104FE0000AD0222B06D12122084920000AF018F904
:104FF00004B010BD0648FBE701A904F093F90922AB
:1050000001A920000AF00CF9F2E7C046ECAF01005C
:1050100016FCFFFF70B590B0060040226946C068DC
:105020000AF084F8002821DD6B461C787369198822
:1050300000291DD13F252540181D6B4640182A0028
:10504000591C15F0C9FA3F2173698C431A88002056
:10505000521992B21A80002C08D0402C18D0802C03
:1050600018D002219970100000221A8010B070BD73
:1050700062B2002A11DB3F258022254068185200C9
:105080009042D9DD6A2004F075FD73691988D3E771
:105090009870E8E701219970E5E7682004F06AFD5F
:1050A00073691988E7E7C046F0B5C64600B51E002B
:1050B0001E4B90B0070018680D00140004F0A2FA0F
:1050C000002814D03F2333435BB298463F2C14DCB6
:1050D0006B46220029002643581C1E7015F07CFAEE
:1050E000B868402269460AF09BF800281CDA0120C3
:1050F000404210B004BC9046F0BD402E12D0434652
:105100006A4613706B463F222900581C15F064FA5A
:1051100040226946B8680AF083F80028E7DB3F358B
:105120003F3CD3E73F23EBE70020E2E7980A00206B
:1051300070B5057E04000020002D06D0C030002B85
:1051400004D003002000FFF7AFFF70BD4038F8E740
:1051500070B50500140072B64069083015F03CFACD
:1051600062B66B692800191D221D4023FFF79CFFC2
:1051700070BDC046F8B51B4B4746CE4699461A4B04
:1051800080B59846194D1A4F1A4E2B78002B1BD11B
:105190004B465B6904225E6041464846FFF7D8FFF4
:1051A0007B6904225E6041463800FFF7D1FF14247A
:1051B0002B78002BE9D13220013C03F01FFE002C9C
:1051C000F6D12B78002BE3D00B4C2068002803D0BD
:1051D00003F098FF0023236000232B700CBC904643
:1051E0009946F8BD00040020A80300206A0B0020A7
:1051F0003C050020FDF99236AC03002070B5040098
:105200000E001500FC2A0EDD72B643690422191D3A
:105210000023FFF749FF40232A0031002000FFF759
:1052200043FF62B670BDFFF793FFFBE7F0B585B0B3
:105230000500FFF7EFFE002838D06C69A278002A3D
:1052400036D121896368A1800121E2802976082B6B
:1052500000D1B6E013D96F4A934200D1AAE058D9E1
:105260006D4A934200D198E06C4A934268D06C4AF0
:10527000934200D184E001232100E38042E0032B2C
:105280003AD017D8012B4ED0022BF4D1654BDC68F5
:10529000654B2200B43A9A4200D9AFE0200015F0E5
:1052A0000CFA020021002800FFF7A8FF05B0F0BDAE
:1052B0000020FBE7042B22D0052BDCD1211D40234D
:1052C00004222800FFF7F0FE5649574ACB68B43B4A
:1052D00093420CD84B681900B439914207D8DA07C9
:1052E00005D544220F20A9688A5C10409847F12018
:1052F00004F040FC696905E04C4A4D4B1A6002F02D
:10530000BDFE69690431402304222800FFF7CCFE6A
:10531000CCE7092B1CD0102BADD14649280004C97D
:10532000FFF76CFFC2E70223A360FE33E260226155
:105330006361211DC03B14222800FFF7B5FEB5E7CD
:105340003D4B28001A683D4B1968FFF757FFADE742
:10535000236921009A001032904204D0F52004F015
:1053600009FC23696969E6685A1E1434002BC9D008
:1053700023001F68181B87510433013AF9D2C1E793
:105380002F4BE2681B6828001A602E4B042219700C
:10539000211D4023FFF788FE88E7FFF7ADFA284B71
:1053A00002901B68082202A9280001930393FFF7CB
:1053B000CFFE7BE7244A254B1A6002F05FFE696945
:1053C000A0E7102802D0FB2004F0D4FB26693F2E72
:1053D00017D82000731E0830E468002E05D00200A4
:1053E000111A095902C2013BFAD26B69B600191DA4
:1053F000321D40232800FFF757FE57E70322144CC5
:1054000050E7FD2004F0B6FB2000731E0830E4686E
:10541000E5E7C04693BD2011E066FC53101590707F
:105420003159A527F01F00004B1F0000EF6926F03F
:10543000FC7F00206C060020B0030020AC0300209D
:10544000780300206A0B00207FACEBF0047800208A
:1054500024B0010070B504000D0005F02BFC044BD6
:1054600065610833236000232000237670BDC046A9
:1054700028B0010070B504000D0005F01BFC0023EE
:105480002376034B656108332000236070BDC0465E
:1054900044B00100F0B50400C56983B02900294873
:1054A00003F0F4F8E369002B1BDB6068A91E6B882E
:1054B0002A8809880190A0690090234803F0E6F843
:1054C0002B88224A934204D0D022D201934210D09A
:1054D000FEE7E3690233E3616368032B28D003B07E
:1054E000F0BD03225B005B08E361194B1B681A6087
:1054F000F5E72600E369174FDA1CA261164A02336A
:10550000164D13602436164B3868AD1B1D600028FD
:1055100001D003F0F7FD280003F0CAFD2A00310096
:10552000386015F059F801220E4B9343E361D6E73A
:105530000022074B1B681A608023A2691B061343D5
:10554000A361CCE760B0010068B0010040680000D2
:1055500078030020AC030020A80300200080002076
:10556000B00300207551000000B56846FFF792FFB8
:1055700000BD704770B50124644221001920FDF779
:105580003BFD40B200F0CCF8210005001820FDF7EB
:1055900033FD40B200F0C4F80600D02014F0E9FF5B
:1055A00004003200290002F04FFD014B1C6070BD69
:1055B000B4030020F0B5C64600B5124F82B03B6878
:1055C00004000E009046002B18D0300000F0C6F802
:1055D00005006400A1B244462A0038680832036816
:1055E0000094DC693300A047030058425841404210
:1055F0000540280002B004BC9046F0BDFFF7BAFF9A
:10560000E3E7C046B4030020F0B50B4E0400306859
:1056100083B00D00170000280AD02A006400A1B250
:10562000046800976B6808326469A04703B0F0BD56
:10563000FFF7A0FF3068F0E7B4030020F0B5C646DE
:10564000040000B53F2835D8224D2B5D002B09D032
:10565000214A126821498C4663449B00985804BC37
:105660009046F0BD1C4B1E4E9846317818680131AB
:10567000890003F073FD43461860182014F079FF89
:10568000202321005B4207006431E2B2E31818D402
:105690001448D8400123C00711D438000AF0BAF8E2
:1056A000434631781A684B1CDBB2890033708F5047
:1056B0002B55CFE7E320800002F0ECFCC4E7023377
:1056C000EBE72020074B001B83400748E0401843CE
:1056D000E0E7C046B8030020F8030020FFFFFF3FCB
:1056E0006B0B0020FF030000FC0F0000012110B530
:1056F0004942FDF781FCFFF7A1FF10BD70B5040022
:105700000D003F2803D9E320800002F0C3FC2800ED
:10571000FFF794FF014B5A5D1A5570BDB803002086
:1057200010B5002804DBFF2802D0FFF787FF10BD6B
:105730000020FCE7084B10B55C1CFF3402E004338A
:10574000A34207D01A68002AF9D091888142F6D185
:10575000100010BD0022FBE76C05002010B5010011
:105760000020FDF765F810BD014B98687047C046F2
:105770003003002010B503685B69984710BDC04630
:1057800010B50368DB68984710BDC046036810B5C4
:105790005B689847431E9841C0B210BD10B50368BE
:1057A0001B68984710BDC04670B50D001600040078
:1057B000036802219B6C984732002900E08910237E
:1057C000FFF79AFB70BDC04670B505000C001600CF
:1057D00002290EDB03290DDD05290ADC02210368FD
:1057E0009B6C28009847E889102332002100FFF7BE
:1057F00083FB70BD036801219B6CF2E7F0B50439AF
:105800004F464646D6464B424B419146C0B5984618
:10581000060004F035FC4B4604000D00DF1706E0DF
:1058200004F02EFC001BA941B9421FD81CD03368DC
:1058300030005B68984782464045F1D104F020FC77
:10584000804606E004F01CFC001BA941B9420DD8BB
:1058500012D0336830005B6898478245F2D004F07C
:105860000FFC4346C01A02E08145E0D200201CBC78
:1058700090469946A246F0BD8145EAD2F6E7C04679
:1058800010B50123002903D001394B4259414B0087
:1058900002681900126C904710BDC04610B50AF09E
:1058A00061F910BDFA2210B50368D2001C69014BE2
:1058B000A04710BDDC05000010B50AF0FDF810BDD2
:1058C00070B5D31872B61578013280244160032672
:1058D000013EFDD12C4200D101600626013EFDD1E2
:1058E0000160641004D0E4B20226013EFDD1EDE770
:1058F0009A4200D2E7E762B670BDC04670B50D00AF
:1059000001214942FDF778FB03001E3B0400012BF7
:1059100000D970BD0021CB20FDF76EFB002811D10E
:105920001F231A00E1170A40C90E121964181C40FF
:10593000074B52119C460223641AD201A4186444F6
:105940002370E6E729002000FFF7D8FEE1E7C04614
:10595000404400410121F8B5494200AF9620FDF7CF
:105960004BFB41B21420FFF7C9FF012197204942A8
:10597000FDF742FB41B21620FFF7C0FF012198203E
:105980004942FDF739FB41B21A20FFF7B7FF012169
:105990001B204942FDF730FB40B2FFF7C1FE002853
:1059A00060D00368304C5B699847444301210E2066
:1059B0004942FDF721FB40B2FFF7B2FE002803D0B9
:1059C00003685B69984744432000FCF753FF0121BB
:1059D00014204942FDF710FB40B2FFF7A1FE041E60
:1059E00007D00021C820FDF707FB42001218002A4B
:1059F0000CD11E4B1E4A1968914205D100221A6033
:105A00001C4B01321B681A60BD46F8BD6E46D31DA3
:105A1000DB08DB00F31A9D460021684614F0F7FD11
:105A2000236800211B6820009847012003F0E6F955
:105A3000236800211B682000257C98471F23012133
:105A40002B4099400C4B68119C46C00160446A464B
:105A50001E23FFF735FF236800211B6820009847AD
:105A6000B546C6E7004CA1E7A10D0C000478002064
:105A70007FACEBF07803002014440041F8B501241A
:105A8000644221001320FDF7B7FA40B2FFF748FE49
:105A9000210005001220FDF7AFFA40B2FFF740FEEB
:105AA000210006001720FDF7A7FA40B2FFF738FEE5
:105AB0000700982014F05DFD04003B00320029002F
:105AC0000AF062F9014B94341C60F8BDFC0300201D
:105AD00070B5074C05002068002804D00368290031
:105AE0009B68984770BDFFF7C9FF2068F6E7C0467E
:105AF000FC03002070B5114E0500306882B00C0028
:105B0000002816D0002D0DD029006A680831002C1D
:105B10000CD023006468083305680094EC68A04743
:105B200002B070BD00220021002CF2D1002400231D
:105B3000F2E7FFF7A3FF3068E4E7C046FC0300206C
:105B400070B5074C05002068002804D003682900C0
:105B50001B68984770BDFFF791FF2068F6E7C046C5
:105B6000FC03002070B5074C05002068002805D014
:105B7000036829005B680822984770BDFFF77EFF25
:105B80002068F5E7FC03002010B5642003F036F927
:105B9000014803F0CFFF10BD1C04002010B5094BD5
:105BA000094C0A49E3600A4B2000236103F0C2FC60
:105BB0000849200003F0BEFC0749084803F014F828
:105BC00010BDC046BC0000201C04002000040020C2
:105BD00090B001003C050020A18E0000895B000010
:105BE00070B504000D000A00002301000848FFF70B
:105BF0009FFA00232A0021000648FFF799FA064B76
:105C00001B68002B02D029002000984770BDC046B9
:105C1000000400203C0500205805002010B5082194
:105C20000548FFF7DDFF054802C8FFF7D9FF02214D
:105C30000348FFF7D5FF10BD80B001006C060020BF
:105C40008CB0010010B5064803F054FB054C064823
:105C50002100FFF7FFFB21000448FFF70BFC10BDFC
:105C60001C04002038040020000400203C05002013
:105C700010B5FEF777FE002010BDC04670B5D318F2
:105C800072B615780132802441600326013EFDD1B1
:105C90002C4200D101600626013EFDD10160641056
:105CA00004D0E4B20226013EFDD1EDE79A4200D2D3
:105CB000E7E762B670BDC046F0B50121D6464F4653
:105CC00046464942C0B582460820FDF795F90121B4
:105CD00044B24942002C40DB0720FDF78DF9050056
:105CE0002000FFF71DFD070068B2FFF719FD0368EC
:105CF00000211B6804009847012003F07FF800236F
:105D0000994653465B68002B22DD53464B441B7A71
:105D1000082698468025414629404B1E99413B68FC
:105D200038001B689847236801211B6820009847AA
:105D3000236800211B682000013E98476D08002E53
:105D4000E9D101239C4653465B68E1444B45DCDCCA
:105D50001CBC90469946A246F0BD1420FDF74CF9B4
:105D600040B200281DDBFFF7DBFC53465E6803688A
:105D700000211B680500047C98471F230121234054
:105D80009940094B52469C466011C0016044330063
:105D90000832FFF773FF2B6800211B682800984723
:105DA000D6E70B20DFE7C046144400417047C046E9
:105DB0007047C046024A43001068C0187047C0468A
:105DC0007C0300207047C0467047C0467047C046FD
:105DD0000048704716FCFFFF012070470120704704
:105DE000002070478020C0027047C04600487047BE
:105DF000E8B00100C36810B5986A802349029B008F
:105E000001F04AFF10BDC046F0B5C646C46800B5F3
:105E1000236B05000E00904698421CD0E76A206371
:105E2000002F05D0380000F0A9FF380014F099FBCE
:105E3000290001221531A06A00F072FFE0627102B0
:105E400001F0DEFA80224146E06A920001F0ECFAAD
:105E500004BC9046F0BDE06AF1E7C04670B50400AE
:105E60000D0004F08DFD044BA56208332360002370
:105E70002000E362236370BDF0B00100F0B50400C0
:105E80001C4F83B03A68002553780133537004F0F7
:105E90005BFEA36A186803681B6898470002164BEC
:105EA0000090220015490195200004F0F3FD200028
:105EB000134A142104F08AFE8D23A06A5B00C552A8
:105EC00001F0A4F8002810D014250E4E030001950F
:105ED00002680833009231002200200004F0DAFD4D
:105EE000A06A01F093F80028F0D1386803F022FE90
:105EF00003B0F0BD980A0020CCB00100F55D0000B1
:105F0000DCB00100095E0000F8B5CE46474680B51A
:105F10000700804601CF894603683A005C68802309
:105F20005B00A04743465A1D3E00FF323C0002E0A2
:105F30000134944207D02378FF2BF9D000200CBC09
:105F400090469946F8BD4346186880210368890049
:105F50005D6880233A005B004944A8473D0002E0A9
:105F60000135AC4203D02B78FF2BF9D0E6E743464E
:105F7000186880210368C9005C68802349445B007D
:105F80003A00A04702E00136B54203D03378FF2B38
:105F9000F9D0D3E70120D2E78622002370B5016053
:105FA000012152008354043281500A328352163A3E
:105FB000835010230022064DFF33C2542B88040067
:105FC000002B02D105F0D0F82880200070BDC0461B
:105FD000680B0020F0B50668C646336800B55F68F8
:105FE0000B0A984686235B00C35C04000D009845AD
:105FF00002DB124802F04EF884234146FF205B008A
:10600000E3580002595CFF2384462B406344090493
:10601000C9188023221D5B003000B847012002E030
:106020000130FF2807D023181B79FF2BF8D1284314
:1060300004BC9046F0BD0020FAE7C046B60300005D
:10604000F0B54F464646D6460D00C0B5904607000F
:10605000002A23D080235B029946441D061D8944F3
:10606000FF3438683200036829005B689A46802351
:106070005B00D047330002E001339C4208D01A781D
:10608000FF2AF9D000201CBC90469946A246F0BDDC
:106090000135FF35A945E4D14046F4E7FFF734FF69
:1060A000F1E7C046F0B54546DE4657464E468223E8
:1060B000E0B55B00C35889B00500002B02D0314821
:1060C00001F0E8FF286803AC03681B6898470302E7
:1060D00098462D4B0222039300232371A360E360B3
:1060E0002A4B627123614346002B32D000239B462A
:1060F00000931B33FF339A46254B0026994653469F
:10610000EB5A4B450DD05A4631002800FFF798FF57
:10611000002806D12868310003681B6998470123CD
:106120009B4680235B02F718B84519D8164B02220C
:1061300003930023286823716271A360013B154A11
:10614000E38023610368E2609D682200142331002C
:10615000A84709B03CBC90469946A246AB46F0BD64
:106160006B4628681A880368E2809A6831000192B9
:106170001423019E2200B047009B3E0001339BB2D6
:106180000093BCE7B60300008E347635DCC60146CA
:10619000F0FF000063F09FD0F0B54546DE4657465D
:1061A0004E468723E0B58FB003915B000A00C15CC7
:1061B0000500914200D10DE186235B00C35C9A4249
:1061C00000DD07E10B040293039B06AF1B042022B2
:1061D000002138001C00019314F019FA2B0001CBA8
:1061E000FF219A460368A4465C6880230902614443
:1061F0005B005246A0471F2189461E398846FE3162
:106200008C468B26193101238B466A1D7600117846
:10621000002913D1484644461840844020005911B3
:1062200089007C582043785061461170A95B58461C
:106230000139A9535946695A0131295201330132B2
:10624000FF2BE4D1029E00233100286805930368E8
:1062500005AA9C680C310423A0473100FF2628685A
:1062600036020368B4469C68802352465B00614452
:10627000A047019B01245E1C1F2399461E3B9846A4
:106280002B00FF3655469A4604E001360134FF36AE
:10629000FF2C24D04A4641462240914063119B0086
:1062A000FB580B42F1D153461868310003682A00AD
:1062B0005B6801349B4680235B00D8475346019AB4
:1062C0001868029B991A036889199B682A009B46E3
:1062D000802301365B00D847FF36FF2CDAD15346C6
:1062E0001868AA461D000368019F5C688023524617
:1062F0005B003900A0472A002868029E0368B11D90
:106300009C680A320223A0473100364B2868059367
:10631000036810319C6805AA0423A04700233900B4
:1063200028680593036805AA9C6810310423A047D8
:10633000012328685B42EA686B812B616B6103680B
:106340000132EA601B69390098478020002200234F
:106350004000A9180979FF2900D0130001328242B8
:10636000F7D12868019E02680133946831005246D3
:10637000A04731001C4B28680593036805AA9C6858
:106380000C310423A047862040002B5C0022002B08
:1063900014D08424872664007600039F03E02B5CDE
:1063A000013293420ADD2B599B1819788F42F6D19E
:1063B000A95D013219702B5C9342F4DC6A46872395
:1063C000127B5B00EA540FB03CBC90469946A24653
:1063D000AB46F0BD054801F05DFE87235B00E95C3C
:1063E000F0E6C046DCC6014663F09FD0B60300006D
:1063F000F0B5DE4657464E4645468623E0B55B007F
:10640000C25C043B8BB00600FF21C05814F0FFF8BB
:1064100000230022009301930293013B03931F008A
:106420005B4B00249346914605AD9A460DE07B1CDC
:1064300062D1012327009B46994686235B0098463C
:10644000F35C01345A1CA24231D93068210403683C
:106450002A005B6898461423C0472B685345E6D151
:106460002B79002BE3D10E226B79FF32B354009AC3
:10647000AB6894469C4462460092EA8845498A4249
:1064800003D045492869884240D07A1C34D1434A18
:10649000E968270001939142CFD0012399468623D2
:1064A0005B009846F35C01345A1CA242CDD8882187
:1064B000009A4900501C3A4A424370584240725078
:1064C00087225200B7547A1C16D00E22FF32B25CDB
:1064D000002A11D05B089A420EDC4B46002B2FD1CC
:1064E0000122029B9146019A64339A4206D903998C
:1064F0003000FFF751FE01E00023994648460BB0FB
:106500003CBC90469946A246AB46F0BD8621490068
:10651000715C8A42F0DA8421490071588A18117836
:10652000FF29B2D1039B1470013307D0AB68029AE4
:10653000934200D381E7039402937EE7AB68FAE7C6
:106540003900184802F0A2F8114B144A05930023B1
:106550002B7102336B71033BEB802B615B46EA606E
:10656000002B05D043460098F15C0BF0AFF9019089
:10657000019B3068AB6003683F0439001B69984792
:1065800030682A00036839009C681423A047B5E7E7
:106590008E347635FFFF0000DCC6014663F09FD0E5
:1065A0009301000130B10100F0B54546DE46574683
:1065B0004E46E0B585B004000D1E03922ED0039B1D
:1065C000002B00D0A5E000220E239346FF33E35CAE
:1065D00099465B4530D800230293039B002B00D0E3
:1065E0009FE0524802F052F8514801F053FD8423D5
:1065F0005B00E358029A2000995CFFF7CDFD200074
:10660000FFF7F6FE002802D1494801F043FD05B02E
:106610003CBC90469946A246AB46F0BD8A235B003F
:10662000E1520233E1520233E1520C3BC35C994622
:10663000002BECD000239B46231D9A460023261DE9
:1066400002939846631D0193FF3686235B00E35C4B
:106650009B4502DB364801F01DFD84235A465B0052
:10666000E3582068995CFF231B029C4603680904D9
:106670005F68802361445B005246B8478C228B20C0
:106680005200019B00219446400009E0013189B28B
:10669000002D02D1225A0132225201339E4210D0E3
:1066A0001A78002AF2D0002DF7D1FF2A1ED08A22B4
:1066B0008A275200A25A7F0001320133E2539E42E0
:1066C000EED1884502D25B468846029301239C4660
:1066D000E344CB45B9D34346002D0DD0002B00D069
:1066E00085E7039B002B00D17BE71AE062466746F3
:1066F000A25A0132E253D0E7802B00D977E78C22EF
:10670000434652009B00A25A4344934200D96EE78D
:106710007DE70E228623FF32A25C5B00E35C93469A
:1067200056E7044801F0B2FF5EE7C0465CB10100E5
:10673000B603000048B10100F8B504000068036822
:106740001B689847FF230200C017184080180012EA
:1067500001380D33C0B2E05413F024FF84235B00F2
:10676000E0502000FFF744FE00280DD18D235B0090
:10677000E25A194B9A4211D02000FFF793FC2000F7
:10678000FFF736FE002805D0002200212000FFF789
:106790000BFFF8BD114801F07DFCF5E720680368A8
:1067A0001B6898470702E7D0002505E080235B02BD
:1067B0009C466544AF42DFD929002000FFF7A4FBC7
:1067C000061EF3D1862384255B00E0546D006059DA
:1067D00013F0C7FE6651DCE7F0FF0000B6030000CF
:1067E000F0B54646D6464F460500C0B588469446A5
:1067F00000294FD00E23FF33C15C013BC65C8FB232
:10680000711A0123002904D001205B00034399423F
:10681000FBD2882040002858284A294C5043A146E2
:10682000484404001C40A142F7D988235B00E8508B
:1068300063463C19A4B2002B36D100239A469946F0
:10684000210289B22800FFF7C5FB80B2002818D1C9
:106850000134A4B2A642F3D14B46002B16D05346C6
:10686000002B1DD13C00424601212800FFF79CFE71
:10687000210289B22800FFF7ADFB80B2CA4600288A
:10688000E6D01CBC90469946A246F0BD01233C00D0
:106890009946D5E70E23FF33C65C00210027AFE7FA
:1068A000084801F0F7FBDDE7FF2361462800994324
:1068B000FFF790FB80B20028BFD0E2E70D66190019
:1068C0005FF36E3CB6030000F0B54646D6464F4631
:1068D000C0B582B06B4604000E00DA71FF2A63D0A7
:1068E000002A2ED08A225200A35A0133A352043226
:1068F000A35A013BA352FF27330A374099461E0093
:1069000025682B689B68984686235B00E35C4B45B3
:1069100002DC284801F0BEFB84235B00E3586A4692
:10692000995DFF231B029C4609046744C919012392
:1069300007322800C04702B01CBC90469946A246C8
:10694000F0BD1732FF32A35A0133A352023AA35AC1
:10695000013BA3520E22FF32A25C33129342CADAE9
:10696000FF272368374098461B689B689A4617D0D4
:1069700086235B00E35C360AB1469E420CDA842330
:106980006A465B00E3580732995D3B020904C91867
:1069900040460123D047B3E7064801F07BFBEEE712
:1069A000044801F077FBE3E7024801F073FB6B4614
:1069B000DA7995E7B603000070B51025FF35435D21
:1069C0000400002B07D00A4E31880A4802F038FA3A
:1069D000635D002BF8D110230122FF33E254033B07
:1069E000E35C002B00D070BD2000FFF7A5FEFAE7A6
:1069F000680B0020FF030000102310B5FF33C35CB9
:106A000084B00400002B02D1074801F043FB10239F
:106A10000022FF33E254054B05491A8868460123DA
:106A200005F0AEFC04B010BDB6030000680B0020FA
:106A3000FF030000F8B586267600845D0500002C73
:106A40000BD18D2710237F005B42C353FFF7B4FFA8
:106A50002800FFF7D1FFEC53AC5D6042C00FF8BDDA
:106A6000F0B557464E46DE464546E0B589B00A7851
:106A700000AF0600B960002A00D1B3E05B4B5C4870
:106A80004343013153400A78002AF9D1FF321A40BA
:106A9000022A00D99EE0103BDBB29846B86813F09A
:106AA0000CFE023083B2BB61402B00D996E00E236E
:106AB000321D3A600022FF33F35C7A60002B76D0FF
:106AC00035682B685B6899467B681C0486235B00ED
:106AD000F35C240CA34202DC464801F0DBFA842379
:106AE0005B00F3583A68195DFF231B029C46802324
:106AF00009045B0028006144C8477B6801241B022D
:106B00001BB27B61BB6945465A1E0733DB08DB00BD
:106B1000FA603B6102E00134FF2C3ED033191B794F
:106B2000AB42F8D16B463A69FB619B1A9D467B6983
:106B3000EA4623439BB29946FF234A4613409846B0
:106B400038D04B461B0A9B4686235B00F35C9B4573
:106B500002DB284801F09EFA84235A465B00F35872
:106B60003068995C434609041B02C9180368524601
:106B70005B689B46BB69D84753461B78012B07D1FE
:106B80005046FA680130B96813F017FD002815D097
:106B9000FB6901349D46FF2CC0D17B68A8460133B8
:106BA0001A007B600E23FF33F35C934288DC0023E2
:106BB0009B4606E00F4801F06DFAC2E7FB69CB4641
:106BC0009D465846BD4609B03CBC90469946A246F3
:106BD000AB46F0BDFF2A00D05EE75CE7054801F058
:106BE00059FA64E7C523984658E7C046C59D1C81FD
:106BF00093010001B603000070B505000C00FFF71B
:106C0000DBFE21002800FFF72BFF04002800FFF720
:106C1000F3FE601E8441E0B270BDC046F0B5574639
:106C20004546DE464E46E0B50B7883B005000F00C2
:106C3000002B69D00A00364C36494C4301325C4087
:106C40001378002BF9D1FF332340022B05D9FF2BFA
:106C500003D00133E4B2594304E0103CE4B22D49BF
:106C6000631C594388235B00EA5828005140E950CF
:106C700000220021FFF7B4FD8046380013F01DFD0F
:106C800080222B1D023086B25200FF2118009B4645
:106C900013F0BDFC012339002B71681D721E13F027
:106CA0009BFC2B68FF279A461B689B680193434611
:106CB0001F4025D043461B0A9BB2994686235B00A2
:106CC000EB5C994502DB144801F0E4F984234A4661
:106CD0005B00EB583F02995C504609043300C91928
:106CE0005A46019EB047280022004146FFF7ECFDBE
:106CF000404603B03CBC90469946A246AB46F0BD28
:106D0000054801F0C7F9D5E70449C524AAE7C046FC
:106D1000C59D1C8193010001B6030000B23701C676
:106D2000F8B505000C001700FFF746FE210028000B
:106D3000FFF796FE061E06D1002F1CD0210028006A
:106D4000FFF76CFF0600202013F013FC0023002245
:106D5000040043830382C38143610533FF3382749C
:106D6000C274EA58056086814260E8502800FFF747
:106D700043FE2000F8BD0020FCE7C04682230168E6
:106D80005B00CA5810B50400904214D0002A09D004
:106D90005368984204D10AE05A68944208D013001C
:106DA000002BF9D1054801F075F9200010BD130042
:106DB00062685A60F9E74268CA50F6E7B603000015
:106DC000F0B5012302E00133402B27D0C418247909
:106DD000002CF8D15F1CDD1C5C1D002906D0C318F7
:106DE0009E79C3191B79360233430B80002A00D0E9
:106DF00017802A1D8218EB1C1178002907D15178C1
:106E0000002904D104192179002900D11D009C1CFE
:106E100003320333FF2CEFDD2800F0BD452443256A
:106E20004127DAE7F0B54E464546DE4657468946E5
:106E3000E0B500240600002585B0031D01910093F4
:106E40003368FF279A461B685B689B464B461F408A
:106E500000D187E04B461B0A9BB2984686235B0015
:106E6000F35C984502DB674801F014F9842342463D
:106E70005B00F3583F02995C802309045B00C91949
:106E8000009A5046D8473379002B73D002AB991D36
:106E900000223000FFF794FF831CFF2B24DC311805
:106EA0004A790B7912021343574A934230D0F14387
:106EB000063037188A4690460EE001341419002D2A
:106EC0001BD15346DB19FF2B0EDCBA787B781202FC
:106ED0001343033743451BD03A78FF2AEDD11D00F9
:106EE0005346DB19FF2BF0DD02ABDB88464A9342A9
:106EF00013D0002D05D19946A2E7424801F0CAF807
:106F0000DFE7404801F0C6F802ABDB88994697E717
:106F100002ABDA883C4B9A4228D1002D33D1019B39
:106F2000994528D0FF2537683B685B689846019BE8
:106F30001D405DD0019B1B0A994686235B00F35CD4
:106F4000994502DB2F4801F0A5F884234A465B00EF
:106F5000F3582D02995C3800090449194023009A1E
:106F6000C04708E0274801F095F873E7254801F08D
:106F700091F8B9E70024200005B03CBC9046994642
:106F8000A246AB46F0BDFF2733682F4098461B68EA
:106F90005B68994630D086235B002D0AF35CADB266
:106FA0009D4202DB174801F075F884235B00F3581B
:106FB0003F02595D80230904C9195B00009A4046CD
:106FC000C8470021FF2302E01100013B18D3F2184B
:106FD0001279FF2AF8D100E013005A1E03D3B0182B
:106FE0000079FF28F8D0994200DA1900641899E76F
:106FF000044801F04FF89DE7024801F04BF8CAE75A
:107000000023F0E7B6030000FFFF0000F0B545469F
:10701000DE4657464E46E0B595B00500FFF7CCFC7E
:107020008D220E215200FF31AB5A685C2C1D1912C3
:10703000A2469046884200DC71E0FF2280271A4079
:107040007F009146BF1A202F00DD20271B0A9B4698
:1070500086232C685B002268EB5C56689B4502DB4C
:10706000314801F017F884235A465B00EB582000A2
:10707000995CFF231B024B440904C91852463B008C
:10708000B047002401AE08E02B191B79033BDBB2AB
:10709000FB2B0FD90134BC4234DA4B461B19FF2BB2
:1070A000F2D9214800F0F6FF2B191B79033BDBB224
:1070B000FB2BEFD84346E95A2800091989B2E95257
:1070C0000023F180B380FFF7ADFE434642463060B7
:1070D000EB5A0133AB522B79012BDBD1691D03A88D
:1070E00013F0E3FA4C223100504613F075FA2800F1
:1070F000FFF782FC504615B03CBC90469946A2462C
:10710000AB46F0BD43464246EB5ADB199BB2AB524D
:107110000E22FF32AA5C1912914200DA8DE7280094
:10712000FFF76AFC0020E6E7B6030000F0B54E4624
:107130004546DE465746E0B5C48983B0050089461A
:10714000002C01D18489C4814B461B88A34220D0E6
:10715000FF262B6826409A461B6898461B685F6886
:107160006BD0862352465B00D35C240A9C4249DAEA
:107170002B6851461A1D84235B00CB583602195DDB
:10718000802309045B0089194046B8474A46EB89C9
:1071900013806B460022991D2868FFF711FE841C9E
:1071A000FF2C56DC2B6853499B461B185A791B79D8
:1071B00012021A438A4229D02E8A002E00D18FE073
:1071C000431D073058448C460AE044780178240275
:1071D0000C4364451AD00333033096421ED022007C
:1071E0001F00FF2BF1DD964233D16B46414ADB880D
:1071F00093420BD0EB81002349462B822800FFF7F6
:1072000095FF04E03C4800F045FFB1E7002003B0E3
:107210003CBC90469946A246AB46F0BD3B005B4461
:107220001B79EB74002CE0D0FF2B16D00133EB74EC
:1072300000232C82AB740120E9E72F4800F02AFFDD
:10724000862352465B00D35C240A9C4200DA8FE717
:10725000D8E7294800F01EFFC7E7002249460A8008
:107260005A4612682340904612681F1E5268914683
:1072700032D0230A9BB29A4686235A465B00D35CDF
:107280009A4525DA2B6859461A1D84235B00CB5892
:107290005146595C802309043F02C9195B004046EE
:1072A000C84700262968FF2302E01600013B1ED3D1
:1072B000CA181279FF2AF8D100E013005A1E03D32E
:1072C00088180079FF28F8D0B342B0DA3300AEE76F
:1072D000094800F0DFFED5E7074800F0DBFEC8E70D
:1072E0005C442379EB74002AB3D014009CE700239C
:1072F000EAE7C046FFFF0000B6030000F0B5DE4637
:1073000057464E464546E0B5438B87B006008B4650
:107310001700FF2B02D00068FFF74EFB04AA94462B
:10732000062363441A00039300231380002F60DBBD
:107330004FD00022B37C01923BE0E41ABC4200DD56
:107340003C005A46002A27D03368358A99461B6884
:107350009A461B685B680293FF232B40984634D003
:1073600086224B4652009B5C2D0A9D4202DB22483E
:1073700000F090FE84234A465B00D358B27C595DEE
:1073800043461B02D3180904C9185A462300504625
:10739000029DA847B37CA344019A1B199446A444B8
:1073A000624601927269DBB212193F1B7261B374BB
:1073B00011D0F47CA342C0DB03993000FFF7B6FE86
:1073C000002808D0F47CB37CB7E70B4800F062FEDD
:1073D000C6E700230193738BFF2B02D03068FFF7C1
:1073E0000BFB019807B03CBC90469946A246AB46C1
:1073F000F0BD024F9DE7C046B6030000FFFFFF7FD0
:10740000426910B58A420AD007D90022002382744B
:10741000C27400220382C38143618A1A00D110BD65
:107420000021FFF76BFFFAE710B50023002A02D016
:10743000FFF764FF0300180010BDC046F8B55746BB
:10744000DE464E4645463A4BE0B5478B04009F4228
:1074500032D0002F05D03CBC90469946A246AB46A0
:10746000F8BDFF23012163834942200098466569E6
:10747000FFF7C6FFE38967772383678BA37C268AA0
:107480002377002F1DD1206882235B00C358002B77
:107490000CD0A18902E05B68002B07D09A898A4250
:1074A000F9D162699A605B68002BF7D1290020004E
:1074B000FFF7A6FF6683CEE71E4800F0EBFD678B63
:1074C000C7E723689B461B6899461B685B689A461A
:1074D00043463B40984627D086235A465B00D35C00
:1074E0003F0A9F4202DB134800F0D4FD236859464F
:1074F0001A1D84235B00CB584846D95D43460904D6
:107500001B02C91880235B00D0472068031DFF338E
:10751000C11C05E0627F013B013262779942B3D022
:107520001A78FF2AF6D1AFE7024800F0B3FDD3E79F
:10753000FFFF0000B6030000822302685B0010B565
:107540000400D05800280AD0A2898389934203D12D
:1075500009E08389934206D040680028F9D10448A5
:1075600000F098FD0020FFF769FFA06810BDC0463D
:10757000B60300008821F0B54E4645465746DE4624
:107580008289A34B01320468534349006258E0B535
:107590002768534063503B68067E5B6885B0984619
:1075A000038B05009946002E00D1ECE04B461B0AE8
:1075B000994686235B00E35C994502DB954800F021
:1075C00069FD2B6849461A1D84235B00E358360287
:1075D000595C8023090489195B003800C04703AA5D
:1075E00000212868FFF7ECFB831C04002E68FF2BAA
:1075F00062DC031DF318002006E0621DE11C03336A
:107600002000FF2A55DC0C001A78FF2AF5D15A78A1
:10761000FF2AF2D1270000280CD0040033199B79EF
:10762000FF2B03D07B4800F035FD2E686B8B002BC1
:1076300000D0B0E0002F3FD06A8B01213000FFF76F
:10764000CFF80122010068832868FFF73DF92B6815
:107650001C689A4623689E682B8B99462B7E984619
:10766000002B00D193E04B461B0A994686235246D5
:107670005B00D35C994502DB664800F00BFD842378
:1076800051465B00CB584946595C43462A001B02D1
:107690000904C9181A32C91902232000B04700236F
:1076A0002B776B7705B03CBC90469946A246AB461B
:1076B000F0BD0027002CB1D1002200213000FFF7DF
:1076C0008FF802AA94460623634418800100022220
:1076D00028689846FFF7F8F8022302AA13700023DF
:1076E00053702B681E689A4633689F6843461B8810
:1076F000994643461C78002C00D181E04B461B0A7A
:107700009946862352465B00D35C994502DB41488B
:1077100000F0C0FC842352465B00D3584A46995C73
:107720002402090409190223300002AAB8472B6871
:107730002C7E1E689A4633689F682B8B9946002CD6
:107740005AD04B461B0A9946862352465B00D35CAF
:10775000994502DB2F4800F09DFC842352465B00D4
:10776000D3584A46995C02AB9B8824021C19090431
:107770000223300009194246B84743461B882E6849
:107780002B83042758E7234800F084FC0EE72148A8
:1077900000F080FC67E702AA9446062363449846FB
:1077A00042462B7F013B137033689B461B689B68E6
:1077B00001932B8B9A462B7E9946002B24D053465F
:1077C0001B0A9A4686235B00F35C9A4502DB11484C
:1077D00000F060FC842352465B00F3585846995CE5
:1077E0004B461B0202331C190904091901234246A6
:1077F000019CA0472E681DE7064800F04BFCA0E75F
:10780000044800F047FC79E7024800F043FCD6E763
:1078100093010001B6030000F0B557464546DE4629
:107820004E46E0B5040083B08846171E1ED0822560
:107830006D0020684359002B0AD0A1899A898A4299
:1078400003D10AE09A898A4207D05B68002BF9D1FC
:107850005B4800F01FFC0024EBE79C420DD01C00AD
:10786000E7E7002F10D12068FFF7C6F803B03CBC53
:1078700090469946A246AB46F0BDFFF79DF8200022
:10788000FFF7DCFDFE239946237F657FED184B460D
:107890005D1BBD4200DD3D00002D02DD668B002E2C
:1078A0000AD12000FFF766FE237F657FED184B4667
:1078B0005D1BBD42F0DDEEE723689A461B689B46E0
:1078C0001B689B680093FF23334001933FD08623BE
:1078D00052465B00D35C360A9E4202DB384800F019
:1078E000D9FB842352465B00D358227F995D019BCC
:1078F00009041B02D318C91842462B005846009EA3
:10790000B047237F5B19237743465B190093013B04
:107910001B78FF2B1FD0009B2268984682235B00B8
:10792000D3587F1B002B9CD0A18902E05B68002B01
:1079300097D09A898A42F9D1608B1A8A904203D0F3
:107940009A6852199A60F1E7227FDA74F8E71C48C6
:1079500000F0A0FBBBE723689B461B6898461B68AA
:107960009B681E00638B9A46FF2352461340019387
:1079700021D053461B0A9A4686235A465B00D35CA5
:107980009A4502DB0E4800F085FB84235A465B00D3
:10799000D35852469A5C637F1204591C6177FF21C9
:1079A000C91A019B40461B02C918891822000123ED
:1079B0001C32B047AFE7024800F06CFBD9E7C04685
:1079C000B6030000F0B5C646002200B582B082744E
:1079D000C2746A4600230400961D88460382C38150
:1079E000436131002000338001270025FFF79EFB13
:1079F000002812D0E1898D4203D04346002B31D1BB
:107A00000D00218A20680022FEF75EFF3100200071
:107A10000027FFF78BFB0028ECD14346002B27D033
:107A2000002F2DD1822322685B00D358002B15D064
:107A30000125A089002100246D4202E05B68002B33
:107A40000CD09A898242F9D11982D98159619C74EA
:107A5000DC7499605D835B68002BF2D102B004BCDA
:107A60009046F0BD00222068FEF72EFFE189C7E7AF
:107A7000E289A3899A42D5D0044800F00BFBD1E7F4
:107A8000A18900222068FEF71FFFCBE7B6030000A4
:107A900010B504000068FEF78FFF822322685B00A8
:107AA000D05800280AD0A2898389934203D109E0E3
:107AB0008389934206D040680028F9D1054800F038
:107AC000E9FA00200121FFF77DFF2068FEF794FF0F
:107AD00010BDC046B6030000F0B557464E46DE4620
